{
  "contractName": "Payroll",
  "abi": [
    {
      "constant": true,
      "inputs": [],
      "name": "owner",
      "outputs": [
        {
          "name": "",
          "type": "address"
        }
      ],
      "payable": false,
      "stateMutability": "view",
      "type": "function"
    },
    {
      "constant": true,
      "inputs": [
        {
          "name": "",
          "type": "address"
        }
      ],
      "name": "employees",
      "outputs": [
        {
          "name": "id",
          "type": "address"
        },
        {
          "name": "salary",
          "type": "uint256"
        },
        {
          "name": "lastPayday",
          "type": "uint256"
        }
      ],
      "payable": false,
      "stateMutability": "view",
      "type": "function"
    },
    {
      "constant": false,
      "inputs": [
        {
          "name": "newOwner",
          "type": "address"
        }
      ],
      "name": "transferOwnership",
      "outputs": [],
      "payable": false,
      "stateMutability": "nonpayable",
      "type": "function"
    },
    {
      "anonymous": false,
      "inputs": [
        {
          "indexed": true,
          "name": "previousOwner",
          "type": "address"
        },
        {
          "indexed": true,
          "name": "newOwner",
          "type": "address"
        }
      ],
      "name": "OwnershipTransferred",
      "type": "event"
    },
    {
      "constant": false,
      "inputs": [
        {
          "name": "index",
          "type": "uint256"
        }
      ],
      "name": "checkEmployee",
      "outputs": [
        {
          "name": "employeeId",
          "type": "address"
        },
        {
          "name": "salary",
          "type": "uint256"
        },
        {
          "name": "lastPayday",
          "type": "uint256"
        }
      ],
      "payable": false,
      "stateMutability": "nonpayable",
      "type": "function"
    },
    {
      "constant": false,
      "inputs": [
        {
          "name": "employeeId",
          "type": "address"
        },
        {
          "name": "salary",
          "type": "uint256"
        }
      ],
      "name": "addEmployee",
      "outputs": [],
      "payable": false,
      "stateMutability": "nonpayable",
      "type": "function"
    },
    {
      "constant": false,
      "inputs": [
        {
          "name": "employeeId",
          "type": "address"
        }
      ],
      "name": "removeEmployee",
      "outputs": [],
      "payable": false,
      "stateMutability": "nonpayable",
      "type": "function"
    },
    {
      "constant": false,
      "inputs": [
        {
          "name": "employeeId",
          "type": "address"
        },
        {
          "name": "salary",
          "type": "uint256"
        }
      ],
      "name": "updateEmployee",
      "outputs": [],
      "payable": false,
      "stateMutability": "nonpayable",
      "type": "function"
    },
    {
      "constant": false,
      "inputs": [],
      "name": "addFund",
      "outputs": [
        {
          "name": "",
          "type": "uint256"
        }
      ],
      "payable": true,
      "stateMutability": "payable",
      "type": "function"
    },
    {
      "constant": false,
      "inputs": [],
      "name": "calculateRunway",
      "outputs": [
        {
          "name": "",
          "type": "uint256"
        }
      ],
      "payable": false,
      "stateMutability": "nonpayable",
      "type": "function"
    },
    {
      "constant": false,
      "inputs": [],
      "name": "hasEnoughFund",
      "outputs": [
        {
          "name": "",
          "type": "bool"
        }
      ],
      "payable": false,
      "stateMutability": "nonpayable",
      "type": "function"
    },
    {
      "constant": false,
      "inputs": [],
      "name": "getPaid",
      "outputs": [],
      "payable": false,
      "stateMutability": "nonpayable",
      "type": "function"
    },
    {
      "constant": false,
      "inputs": [],
      "name": "checkInfo",
      "outputs": [
        {
          "name": "balance",
          "type": "uint256"
        },
        {
          "name": "runway",
          "type": "uint256"
        },
        {
          "name": "employeeCount",
          "type": "uint256"
        }
      ],
      "payable": false,
      "stateMutability": "nonpayable",
      "type": "function"
    }
  ],
  "bytecode": "0x6060604052336000806101000a81548173ffffffffffffffffffffffffffffffffffffffff021916908373ffffffffffffffffffffffffffffffffffffffff1602179055506110e4806100536000396000f3006060604052600436106100ba576000357c0100000000000000000000000000000000000000000000000000000000900463ffffffff16806323fed09e146100bf5780634ec19512146100ec5780635e91d8ec1461011557806385a96258146101575780638da5cb5b1461018e57806396b02696146101e3578063a2f09dfa14610254578063cf41d6f814610272578063d067894714610287578063d108177a1461030e578063e7fd9a1314610347578063f2fde38b14610389575b600080fd5b34156100ca57600080fd5b6100d26103c2565b604051808215151515815260200191505060405180910390f35b34156100f757600080fd5b6100ff6103d3565b6040518082815260200191505060405180910390f35b341561012057600080fd5b610155600480803573ffffffffffffffffffffffffffffffffffffffff16906020019091908035906020019091905050610406565b005b341561016257600080fd5b61016a61061f565b60405180848152602001838152602001828152602001935050505060405180910390f35b341561019957600080fd5b6101a161065e565b604051808273ffffffffffffffffffffffffffffffffffffffff1673ffffffffffffffffffffffffffffffffffffffff16815260200191505060405180910390f35b34156101ee57600080fd5b6102046004808035906020019091905050610683565b604051808473ffffffffffffffffffffffffffffffffffffffff1673ffffffffffffffffffffffffffffffffffffffff168152602001838152602001828152602001935050505060405180910390f35b61025c61071d565b6040518082815260200191505060405180910390f35b341561027d57600080fd5b61028561073c565b005b341561029257600080fd5b6102be600480803573ffffffffffffffffffffffffffffffffffffffff169060200190919050506108a7565b604051808473ffffffffffffffffffffffffffffffffffffffff1673ffffffffffffffffffffffffffffffffffffffff168152602001838152602001828152602001935050505060405180910390f35b341561031957600080fd5b610345600480803573ffffffffffffffffffffffffffffffffffffffff169060200190919050506108f1565b005b341561035257600080fd5b610387600480803573ffffffffffffffffffffffffffffffffffffffff16906020019091908035906020019091905050610b53565b005b341561039457600080fd5b6103c0600480803573ffffffffffffffffffffffffffffffffffffffff16906020019091905050610e01565b005b6000806103cd6103d3565b11905090565b60006104016001543073ffffffffffffffffffffffffffffffffffffffff1631610f5690919063ffffffff16565b905090565b60008060009054906101000a900473ffffffffffffffffffffffffffffffffffffffff1673ffffffffffffffffffffffffffffffffffffffff163373ffffffffffffffffffffffffffffffffffffffff1614151561046357600080fd5b826000600460008373ffffffffffffffffffffffffffffffffffffffff1673ffffffffffffffffffffffffffffffffffffffff168152602001908152602001600020905060008160000160009054906101000a900473ffffffffffffffffffffffffffffffffffffffff1673ffffffffffffffffffffffffffffffffffffffff16141515156104ee57fe5b600460008673ffffffffffffffffffffffffffffffffffffffff1673ffffffffffffffffffffffffffffffffffffffff16815260200190815260200160002092506105ae83606060405190810160405290816000820160009054906101000a900473ffffffffffffffffffffffffffffffffffffffff1673ffffffffffffffffffffffffffffffffffffffff1673ffffffffffffffffffffffffffffffffffffffff16815260200160018201548152602001600282015481525050610f71565b6105c78360010154600154610ffd90919063ffffffff16565b6001819055506105e8670de0b6b3a76400008561101690919063ffffffff16565b8360010181905550428360020181905550610612836001015460015461104990919063ffffffff16565b6001819055505050505050565b60008060003073ffffffffffffffffffffffffffffffffffffffff16319250600254905060006001541115610659576106566103d3565b91505b909192565b6000809054906101000a900473ffffffffffffffffffffffffffffffffffffffff1681565b60008060008060038581548110151561069857fe5b906000526020600020900160009054906101000a900473ffffffffffffffffffffffffffffffffffffffff169350600460008573ffffffffffffffffffffffffffffffffffffffff1673ffffffffffffffffffffffffffffffffffffffff16815260200190815260200160002090508060010154925080600201549150509193909250565b60003073ffffffffffffffffffffffffffffffffffffffff1631905090565b600080336000600460008373ffffffffffffffffffffffffffffffffffffffff1673ffffffffffffffffffffffffffffffffffffffff168152602001908152602001600020905060008160000160009054906101000a900473ffffffffffffffffffffffffffffffffffffffff1673ffffffffffffffffffffffffffffffffffffffff16141515156107ca57fe5b600460003373ffffffffffffffffffffffffffffffffffffffff1673ffffffffffffffffffffffffffffffffffffffff1681526020019081526020016000209350610823600a856002015461104990919063ffffffff16565b9250428310151561083057fe5b8284600201819055508360000160009054906101000a900473ffffffffffffffffffffffffffffffffffffffff1673ffffffffffffffffffffffffffffffffffffffff166108fc85600101549081150290604051600060405180830381858888f1935050505015156108a157600080fd5b50505050565b60046020528060005260406000206000915090508060000160009054906101000a900473ffffffffffffffffffffffffffffffffffffffff16908060010154908060020154905083565b60008060009054906101000a900473ffffffffffffffffffffffffffffffffffffffff1673ffffffffffffffffffffffffffffffffffffffff163373ffffffffffffffffffffffffffffffffffffffff1614151561094e57600080fd5b816000600460008373ffffffffffffffffffffffffffffffffffffffff1673ffffffffffffffffffffffffffffffffffffffff168152602001908152602001600020905060008160000160009054906101000a900473ffffffffffffffffffffffffffffffffffffffff1673ffffffffffffffffffffffffffffffffffffffff16141515156109d957fe5b600460008573ffffffffffffffffffffffffffffffffffffffff1673ffffffffffffffffffffffffffffffffffffffff1681526020019081526020016000209250610a9983606060405190810160405290816000820160009054906101000a900473ffffffffffffffffffffffffffffffffffffffff1673ffffffffffffffffffffffffffffffffffffffff1673ffffffffffffffffffffffffffffffffffffffff16815260200160018201548152602001600282015481525050610f71565b610ab28360010154600154610ffd90919063ffffffff16565b600181905550600460008573ffffffffffffffffffffffffffffffffffffffff1673ffffffffffffffffffffffffffffffffffffffff168152602001908152602001600020600080820160006101000a81549073ffffffffffffffffffffffffffffffffffffffff0219169055600182016000905560028201600090555050610b476001600254610ffd90919063ffffffff16565b60028190555050505050565b60008060009054906101000a900473ffffffffffffffffffffffffffffffffffffffff1673ffffffffffffffffffffffffffffffffffffffff163373ffffffffffffffffffffffffffffffffffffffff16141515610bb057600080fd5b600460008473ffffffffffffffffffffffffffffffffffffffff1673ffffffffffffffffffffffffffffffffffffffff168152602001908152602001600020905060008160000160009054906101000a900473ffffffffffffffffffffffffffffffffffffffff1673ffffffffffffffffffffffffffffffffffffffff16141515610c3757fe5b6060604051908101604052808473ffffffffffffffffffffffffffffffffffffffff168152602001610c7a670de0b6b3a76400008561101690919063ffffffff16565b815260200142815250600460008573ffffffffffffffffffffffffffffffffffffffff1673ffffffffffffffffffffffffffffffffffffffff16815260200190815260200160002060008201518160000160006101000a81548173ffffffffffffffffffffffffffffffffffffffff021916908373ffffffffffffffffffffffffffffffffffffffff1602179055506020820151816001015560408201518160020155905050610d77600460008573ffffffffffffffffffffffffffffffffffffffff1673ffffffffffffffffffffffffffffffffffffffff1681526020019081526020016000206001015460015461104990919063ffffffff16565b600181905550610d93600160025461104990919063ffffffff16565b60028190555060038054806001018281610dad9190611067565b9160005260206000209001600085909190916101000a81548173ffffffffffffffffffffffffffffffffffffffff021916908373ffffffffffffffffffffffffffffffffffffffff16021790555050505050565b6000809054906101000a900473ffffffffffffffffffffffffffffffffffffffff1673ffffffffffffffffffffffffffffffffffffffff163373ffffffffffffffffffffffffffffffffffffffff16141515610e5c57600080fd5b600073ffffffffffffffffffffffffffffffffffffffff168173ffffffffffffffffffffffffffffffffffffffff1614151515610e9857600080fd5b8073ffffffffffffffffffffffffffffffffffffffff166000809054906101000a900473ffffffffffffffffffffffffffffffffffffffff1673ffffffffffffffffffffffffffffffffffffffff167f8be0079c531659141344cd1fd0a4f28419497f9722a3daafe3b4186f6b6457e060405160405180910390a3806000806101000a81548173ffffffffffffffffffffffffffffffffffffffff021916908373ffffffffffffffffffffffffffffffffffffffff16021790555050565b6000808284811515610f6457fe5b0490508091505092915050565b6000610fb3600a610fa5610f92856040015142610ffd90919063ffffffff16565b856020015161101690919063ffffffff16565b610f5690919063ffffffff16565b9050816000015173ffffffffffffffffffffffffffffffffffffffff166108fc829081150290604051600060405180830381858888f193505050501515610ff957600080fd5b5050565b600082821115151561100b57fe5b818303905092915050565b60008082840290506000841480611037575082848281151561103457fe5b04145b151561103f57fe5b8091505092915050565b600080828401905083811015151561105d57fe5b8091505092915050565b81548183558181151161108e5781836000526020600020918201910161108d9190611093565b5b505050565b6110b591905b808211156110b1576000816000905550600101611099565b5090565b905600a165627a7a723058204b4c15864232353b3ac481b8706cb7d8229384f25495d3da2384dbe96efb80e00029",
  "source": "pragma solidity ^0.4.14;\r\n\r\nimport './SafeMath.sol';\r\nimport './Ownable.sol';\r\n\r\ncontract Payroll is Ownable {\r\n    using SafeMath for uint;\r\n    struct Employee {\r\n        address id;\r\n        uint salary;\r\n        uint lastPayday;\r\n    }\r\n    \r\n    uint constant payDuration = 10 seconds;\r\n\r\n    uint totalSalary;\r\n    uint totalEmployee;\r\n    address[] employeeList;\r\n    mapping(address => Employee) public employees;\r\n\r\n\r\n    modifier employeeExit(address employeeId) {\r\n        var employee = employees[employeeId];\r\n        assert(employee.id != 0x0);\r\n        _;\r\n    }\r\n    \r\n    function _partialPaid(Employee employee) private {\r\n        uint payment = employee.salary\r\n            .mul(now.sub(employee.lastPayday))\r\n            .div(payDuration);\r\n        employee.id.transfer(payment);\r\n    }\r\n\r\n    function checkEmployee(uint index) returns (address employeeId, uint salary, uint lastPayday) {\r\n        employeeId = employeeList[index];\r\n        var employee = employees[employeeId];\r\n        salary = employee.salary;\r\n        lastPayday = employee.lastPayday;\r\n    }\r\n    \r\n    function addEmployee(address employeeId, uint salary) onlyOwner {\r\n        var employee = employees[employeeId];\r\n        assert(employee.id == 0x0);\r\n\r\n        employees[employeeId] = Employee(employeeId, salary.mul(1 ether), now);\r\n        totalSalary = totalSalary.add(employees[employeeId].salary);\r\n        totalEmployee = totalEmployee.add(1);\r\n        employeeList.push(employeeId);\r\n    }\r\n    \r\n    function removeEmployee(address employeeId) onlyOwner employeeExit(employeeId) {\r\n        var employee = employees[employeeId];\r\n\r\n        _partialPaid(employee);\r\n        totalSalary = totalSalary.sub(employee.salary);\r\n        delete employees[employeeId];\r\n        totalEmployee = totalEmployee.sub(1);\r\n    }\r\n    \r\n    function updateEmployee(address employeeId, uint salary) onlyOwner employeeExit(employeeId) {\r\n        var employee = employees[employeeId];\r\n\r\n        _partialPaid(employee);\r\n        totalSalary = totalSalary.sub(employee.salary);\r\n        employee.salary = salary.mul(1 ether);\r\n        employee.lastPayday = now;\r\n        totalSalary = totalSalary.add(employee.salary);\r\n    }\r\n    \r\n    function addFund() payable returns (uint) {\r\n        return this.balance;\r\n    }\r\n    \r\n    function calculateRunway() returns (uint) {\r\n        return this.balance.div(totalSalary);\r\n    }\r\n    \r\n    function hasEnoughFund() returns (bool) {\r\n        return calculateRunway() > 0;\r\n    }\r\n    \r\n    function getPaid() employeeExit(msg.sender) {\r\n        var employee = employees[msg.sender];\r\n\r\n        uint nextPayday = employee.lastPayday.add(payDuration);\r\n        assert(nextPayday < now);\r\n\r\n        employee.lastPayday = nextPayday;\r\n        employee.id.transfer(employee.salary);\r\n    }\r\n\r\n    function checkInfo() returns (uint balance, uint runway, uint employeeCount) {\r\n        balance = this.balance;\r\n        employeeCount = totalEmployee;\r\n\r\n        if (totalSalary > 0) {\r\n            runway = calculateRunway();\r\n        }\r\n    }\r\n}\r\n",
  "sourcePath": "D:\\source\\Team-G\\Lesson-5\\assignment\\contracts\\Payroll.sol",
  "compiler": {
    "name": "solc",
    "version": "0.4.19+commit.c4cbbb05.Emscripten.clang"
  },
  "schemaVersion": "2.0.0",
  "updatedAt": "2018-03-28T10:16:42.547Z"
}