{
  "contractName": "Payroll",
  "abi": [
    {
      "inputs": [],
      "payable": false,
      "stateMutability": "nonpayable",
      "type": "constructor"
    },
    {
      "constant": false,
      "inputs": [],
      "name": "addFund",
      "outputs": [
        {
          "name": "balance",
          "type": "uint256"
        }
      ],
      "payable": true,
      "stateMutability": "payable",
      "type": "function"
    },
    {
      "constant": true,
      "inputs": [],
      "name": "calculateRunway",
      "outputs": [
        {
          "name": "runway",
          "type": "uint256"
        }
      ],
      "payable": false,
      "stateMutability": "view",
      "type": "function"
    },
    {
      "constant": true,
      "inputs": [],
      "name": "hasEnoughFund",
      "outputs": [
        {
          "name": "success",
          "type": "bool"
        }
      ],
      "payable": false,
      "stateMutability": "view",
      "type": "function"
    },
    {
      "constant": true,
      "inputs": [
        {
          "name": "e",
          "type": "address"
        }
      ],
      "name": "isEmployee",
      "outputs": [
        {
          "name": "success",
          "type": "bool"
        }
      ],
      "payable": false,
      "stateMutability": "view",
      "type": "function"
    },
    {
      "constant": false,
      "inputs": [
        {
          "name": "e",
          "type": "address"
        },
        {
          "name": "s",
          "type": "uint256"
        }
      ],
      "name": "createEmployee",
      "outputs": [
        {
          "name": "count",
          "type": "uint256"
        }
      ],
      "payable": false,
      "stateMutability": "nonpayable",
      "type": "function"
    },
    {
      "constant": true,
      "inputs": [
        {
          "name": "e",
          "type": "address"
        }
      ],
      "name": "getEmployee",
      "outputs": [
        {
          "name": "salary",
          "type": "uint256"
        },
        {
          "name": "lastPayday",
          "type": "uint256"
        },
        {
          "name": "employeePoolIndex",
          "type": "uint256"
        }
      ],
      "payable": false,
      "stateMutability": "view",
      "type": "function"
    },
    {
      "constant": false,
      "inputs": [
        {
          "name": "e",
          "type": "address"
        },
        {
          "name": "s",
          "type": "uint256"
        }
      ],
      "name": "updateEmployeeSalary",
      "outputs": [
        {
          "name": "success",
          "type": "bool"
        }
      ],
      "payable": false,
      "stateMutability": "nonpayable",
      "type": "function"
    },
    {
      "constant": false,
      "inputs": [
        {
          "name": "oldAddress",
          "type": "address"
        },
        {
          "name": "newAddress",
          "type": "address"
        }
      ],
      "name": "updateEmployeeAddress",
      "outputs": [
        {
          "name": "success",
          "type": "bool"
        }
      ],
      "payable": false,
      "stateMutability": "nonpayable",
      "type": "function"
    },
    {
      "constant": false,
      "inputs": [
        {
          "name": "e",
          "type": "address"
        }
      ],
      "name": "deleteEmployee",
      "outputs": [
        {
          "name": "success",
          "type": "bool"
        }
      ],
      "payable": false,
      "stateMutability": "nonpayable",
      "type": "function"
    },
    {
      "constant": false,
      "inputs": [],
      "name": "getPaid",
      "outputs": [
        {
          "name": "success",
          "type": "bool"
        }
      ],
      "payable": false,
      "stateMutability": "nonpayable",
      "type": "function"
    }
  ],
  "bytecode": "0x6060604052341561000f57600080fd5b33600160006101000a81548173ffffffffffffffffffffffffffffffffffffffff021916908373ffffffffffffffffffffffffffffffffffffffff1602179055506113088061005f6000396000f3006060604052600436106100a4576000357c0100000000000000000000000000000000000000000000000000000000900463ffffffff16806323fed09e146100a95780632e82d075146100d657806332648e09146101465780634ec19512146101a1578063520a19c0146101ca5780636e7c4ab114610220578063a2f09dfa14610271578063cf41d6f81461028f578063ea66543f146102bc578063ec34ece81461030d575b600080fd5b34156100b457600080fd5b6100bc610367565b604051808215151515815260200191505060405180910390f35b34156100e157600080fd5b61012c600480803573ffffffffffffffffffffffffffffffffffffffff1690602001909190803573ffffffffffffffffffffffffffffffffffffffff1690602001909190505061037a565b604051808215151515815260200191505060405180910390f35b341561015157600080fd5b61017d600480803573ffffffffffffffffffffffffffffffffffffffff169060200190919050506106bc565b60405180848152602001838152602001828152602001935050505060405180910390f35b34156101ac57600080fd5b6101b4610806565b6040518082815260200191505060405180910390f35b34156101d557600080fd5b61020a600480803573ffffffffffffffffffffffffffffffffffffffff16906020019091908035906020019091905050610852565b6040518082815260200191505060405180910390f35b341561022b57600080fd5b610257600480803573ffffffffffffffffffffffffffffffffffffffff16906020019091905050610a52565b604051808215151515815260200191505060405180910390f35b610279610d5e565b6040518082815260200191505060405180910390f35b341561029a57600080fd5b6102a2610d7d565b604051808215151515815260200191505060405180910390f35b34156102c757600080fd5b6102f3600480803573ffffffffffffffffffffffffffffffffffffffff16906020019091905050610ebe565b604051808215151515815260200191505060405180910390f35b341561031857600080fd5b61034d600480803573ffffffffffffffffffffffffffffffffffffffff16906020019091908035906020019091905050610f86565b604051808215151515815260200191505060405180910390f35b60006001610373610806565b1015905090565b600080600084600160009054906101000a900473ffffffffffffffffffffffffffffffffffffffff1673ffffffffffffffffffffffffffffffffffffffff163373ffffffffffffffffffffffffffffffffffffffff161480156103e257506103e181610ebe565b5b15156103ed57600080fd5b600360008773ffffffffffffffffffffffffffffffffffffffff1673ffffffffffffffffffffffffffffffffffffffff1681526020019081526020016000206002015492506104a3600360008873ffffffffffffffffffffffffffffffffffffffff1673ffffffffffffffffffffffffffffffffffffffff1681526020019081526020016000206060604051908101604052908160008201548152602001600182015481526020016002820154815250506111a7565b9150600360008773ffffffffffffffffffffffffffffffffffffffff1673ffffffffffffffffffffffffffffffffffffffff16815260200190815260200160002060000154600360008773ffffffffffffffffffffffffffffffffffffffff1673ffffffffffffffffffffffffffffffffffffffff1681526020019081526020016000206000018190555042600360008773ffffffffffffffffffffffffffffffffffffffff1673ffffffffffffffffffffffffffffffffffffffff1681526020019081526020016000206001018190555082600360008773ffffffffffffffffffffffffffffffffffffffff1673ffffffffffffffffffffffffffffffffffffffff16815260200190815260200160002060020181905550846002848154811015156105cc57fe5b906000526020600020900160006101000a81548173ffffffffffffffffffffffffffffffffffffffff021916908373ffffffffffffffffffffffffffffffffffffffff160217905550600360008773ffffffffffffffffffffffffffffffffffffffff1673ffffffffffffffffffffffffffffffffffffffff1681526020019081526020016000206000808201600090556001820160009055600282016000905550508473ffffffffffffffffffffffffffffffffffffffff166108fc839081150290604051600060405180830381858888f1935050505015156106af57600080fd5b6001935050505092915050565b600080600083600160009054906101000a900473ffffffffffffffffffffffffffffffffffffffff1673ffffffffffffffffffffffffffffffffffffffff163373ffffffffffffffffffffffffffffffffffffffff16148015610724575061072381610ebe565b5b151561072f57600080fd5b600360008673ffffffffffffffffffffffffffffffffffffffff1673ffffffffffffffffffffffffffffffffffffffff168152602001908152602001600020600001549350600360008673ffffffffffffffffffffffffffffffffffffffff1673ffffffffffffffffffffffffffffffffffffffff168152602001908152602001600020600101549250600360008673ffffffffffffffffffffffffffffffffffffffff1673ffffffffffffffffffffffffffffffffffffffff168152602001908152602001600020600201549150509193909250565b600080600280549050905060008111151561082057600080fd5b61084c6000543073ffffffffffffffffffffffffffffffffffffffff16316111f090919063ffffffff16565b91505090565b6000600160009054906101000a900473ffffffffffffffffffffffffffffffffffffffff1673ffffffffffffffffffffffffffffffffffffffff163373ffffffffffffffffffffffffffffffffffffffff161480156108b757506108b583610ebe565b155b80156108da575060008373ffffffffffffffffffffffffffffffffffffffff1614155b15156108e557600080fd5b670de0b6b3a76400008202600360008573ffffffffffffffffffffffffffffffffffffffff1673ffffffffffffffffffffffffffffffffffffffff1681526020019081526020016000206000018190555042600360008573ffffffffffffffffffffffffffffffffffffffff1673ffffffffffffffffffffffffffffffffffffffff16815260200190815260200160002060010181905550600160028054806001018281610993919061125f565b9160005260206000209001600086909190916101000a81548173ffffffffffffffffffffffffffffffffffffffff021916908373ffffffffffffffffffffffffffffffffffffffff16021790555003600360008573ffffffffffffffffffffffffffffffffffffffff1673ffffffffffffffffffffffffffffffffffffffff16815260200190815260200160002060020181905550670de0b6b3a764000082026000808282540192505081905550600160028054905003905092915050565b60008060008084600160009054906101000a900473ffffffffffffffffffffffffffffffffffffffff1673ffffffffffffffffffffffffffffffffffffffff163373ffffffffffffffffffffffffffffffffffffffff16148015610abb5750610aba81610ebe565b5b1515610ac657600080fd5b600360008773ffffffffffffffffffffffffffffffffffffffff1673ffffffffffffffffffffffffffffffffffffffff1681526020019081526020016000206002015493506002600160028054905003815481101515610b2257fe5b906000526020600020900160009054906101000a900473ffffffffffffffffffffffffffffffffffffffff169250610bc1600360008873ffffffffffffffffffffffffffffffffffffffff1673ffffffffffffffffffffffffffffffffffffffff1681526020019081526020016000206060604051908101604052908160008201548152602001600182015481526020016002820154815250506111a7565b915042600360008873ffffffffffffffffffffffffffffffffffffffff1673ffffffffffffffffffffffffffffffffffffffff16815260200190815260200160002060010181905550600360008773ffffffffffffffffffffffffffffffffffffffff1673ffffffffffffffffffffffffffffffffffffffff1681526020019081526020016000206000015460008082825403925050819055508573ffffffffffffffffffffffffffffffffffffffff166108fc839081150290604051600060405180830381858888f193505050501515610c9b57600080fd5b82600285815481101515610cab57fe5b906000526020600020900160006101000a81548173ffffffffffffffffffffffffffffffffffffffff021916908373ffffffffffffffffffffffffffffffffffffffff16021790555083600360008573ffffffffffffffffffffffffffffffffffffffff1673ffffffffffffffffffffffffffffffffffffffff168152602001908152602001600020600201819055506002805480919060019003610d50919061128b565b506001945050505050919050565b60003073ffffffffffffffffffffffffffffffffffffffff1631905090565b6000806000339150610d8e82610ebe565b1515610d9957600080fd5b600a600360008473ffffffffffffffffffffffffffffffffffffffff1673ffffffffffffffffffffffffffffffffffffffff168152602001908152602001600020600101540190504281101515610dec57fe5b80600360008473ffffffffffffffffffffffffffffffffffffffff1673ffffffffffffffffffffffffffffffffffffffff168152602001908152602001600020600101819055508173ffffffffffffffffffffffffffffffffffffffff166108fc600360008573ffffffffffffffffffffffffffffffffffffffff1673ffffffffffffffffffffffffffffffffffffffff168152602001908152602001600020600001549081150290604051600060405180830381858888f193505050501515610eb557600080fd5b60019250505090565b60008060028054905014610f7c578173ffffffffffffffffffffffffffffffffffffffff166002600360008573ffffffffffffffffffffffffffffffffffffffff1673ffffffffffffffffffffffffffffffffffffffff16815260200190815260200160002060020154815481101515610f3457fe5b906000526020600020900160009054906101000a900473ffffffffffffffffffffffffffffffffffffffff1673ffffffffffffffffffffffffffffffffffffffff1614610f7f565b60005b9050919050565b60008083600160009054906101000a900473ffffffffffffffffffffffffffffffffffffffff1673ffffffffffffffffffffffffffffffffffffffff163373ffffffffffffffffffffffffffffffffffffffff16148015610fec5750610feb81610ebe565b5b1515610ff757600080fd5b611068600360008773ffffffffffffffffffffffffffffffffffffffff1673ffffffffffffffffffffffffffffffffffffffff1681526020019081526020016000206060604051908101604052908160008201548152602001600182015481526020016002820154815250506111a7565b915042600360008773ffffffffffffffffffffffffffffffffffffffff1673ffffffffffffffffffffffffffffffffffffffff16815260200190815260200160002060010181905550670de0b6b3a76400008402600360008773ffffffffffffffffffffffffffffffffffffffff1673ffffffffffffffffffffffffffffffffffffffff168152602001908152602001600020600001546000540301600081905550670de0b6b3a76400008402600360008773ffffffffffffffffffffffffffffffffffffffff1673ffffffffffffffffffffffffffffffffffffffff168152602001908152602001600020600001819055508473ffffffffffffffffffffffffffffffffffffffff166108fc839081150290604051600060405180830381858888f19350505050151561119b57600080fd5b60019250505092915050565b60006111e9600a6111db6111c885602001514261120b90919063ffffffff16565b856000015161122490919063ffffffff16565b6111f090919063ffffffff16565b9050919050565b60008082848115156111fe57fe5b0490508091505092915050565b600082821115151561121957fe5b818303905092915050565b60008060008414156112395760009150611258565b828402905082848281151561124a57fe5b0414151561125457fe5b8091505b5092915050565b8154818355818115116112865781836000526020600020918201910161128591906112b7565b5b505050565b8154818355818115116112b2578183600052602060002091820191016112b191906112b7565b5b505050565b6112d991905b808211156112d55760008160009055506001016112bd565b5090565b905600a165627a7a72305820c050a86702a93ecd666b103952b678b818ef0d9fa2a49929f2fa431cb6c7fd900029",
  "source": "pragma solidity ^0.4.14;\n\nimport './SafeMath.sol';\n\ncontract Payroll {\n    using SafeMath for uint;\n\n    struct EmployeeInfo {\n        uint salary;\n        uint lastPayday;\n        uint employeePoolIndex;\n    }\n    uint constant payDuration = 10 seconds;\n    uint totalSalary;\n    address private owner;\n    address[] employeePool;\n    mapping (address => EmployeeInfo) private employee;\n\n    modifier isOwnerAndEmployee(address person) {\n        require(msg.sender == owner && isEmployee(person));\n        _;\n    }\n\n    function Payroll() {\n        owner = msg.sender;\n    }\n\n    function _calculatePayment(EmployeeInfo e) private view returns (uint payment) {\n        payment = (e.salary.mul(now.sub(e.lastPayday))).div(payDuration);\n    }\n\n    function addFund() payable returns (uint balance) {\n        balance =  this.balance;\n    }\n\n    function calculateRunway() public view returns (uint runway) {\n        uint employeePoolLength = employeePool.length;\n        require (employeePoolLength > 0);\n\n        runway = this.balance.div(totalSalary);\n    }\n\n    function hasEnoughFund() public view returns (bool success) {\n        success = calculateRunway() >= 1;\n    }\n\n    function isEmployee(address e) public view returns (bool success) {\n        success = employeePool.length == 0 ? false : employeePool[employee[e].employeePoolIndex] == e;\n    }\n\n    function createEmployee(address e, uint s) external returns (uint count) {\n        require(msg.sender == owner && !isEmployee(e) && e != 0x0);\n\n        employee[e].salary = s * 1 ether;\n        employee[e].lastPayday = now;\n        employee[e].employeePoolIndex = employeePool.push(e) - 1;\n        totalSalary += s * 1 ether;\n\n        count = employeePool.length - 1;\n    }\n\n    function getEmployee(address e) external view isOwnerAndEmployee(e) returns (uint salary, uint lastPayday, uint employeePoolIndex) {\n        salary = employee[e].salary;\n        lastPayday = employee[e].lastPayday;\n        employeePoolIndex = employee[e].employeePoolIndex;\n    }\n\n    function updateEmployeeSalary(address e, uint s) external isOwnerAndEmployee(e) returns (bool success) {\n        uint payment = _calculatePayment(employee[e]);\n\n        employee[e].lastPayday = now;\n        totalSalary = totalSalary - employee[e].salary + s * 1 ether;\n        employee[e].salary = s * 1 ether;\n\n        e.transfer(payment);\n\n        success = true;\n    }\n\n    function updateEmployeeAddress(address oldAddress, address newAddress) external isOwnerAndEmployee(oldAddress) returns (bool success) {\n        uint positionToReplace = employee[oldAddress].employeePoolIndex;\n        uint payment = _calculatePayment(employee[oldAddress]);\n\n        employee[newAddress].salary = employee[oldAddress].salary;\n        employee[newAddress].lastPayday = now;\n        employee[newAddress].employeePoolIndex = positionToReplace;\n        employeePool[positionToReplace] = newAddress;\n        delete employee[oldAddress];\n\n        newAddress.transfer(payment);\n\n        success = true;\n    }\n\n    function deleteEmployee(address e) external isOwnerAndEmployee(e) returns (bool success) {\n        uint positoinToDelete = employee[e].employeePoolIndex;\n        address addressToMove = employeePool[employeePool.length - 1];\n\n        uint payment = _calculatePayment(employee[e]);\n        employee[e].lastPayday = now;\n        totalSalary -= employee[e].salary;\n        e.transfer(payment);\n\n        employeePool[positoinToDelete] = addressToMove;\n        employee[addressToMove].employeePoolIndex = positoinToDelete;\n        employeePool.length --;\n\n        success = true;\n    }\n\n    function getPaid() external returns (bool success) {\n        address sender = msg.sender;\n        require(isEmployee(sender));\n\n        uint nextPayday = employee[sender].lastPayday + payDuration;\n        assert(nextPayday < now);\n\n        employee[sender].lastPayday = nextPayday;\n        sender.transfer(employee[sender].salary);\n\n        success = true;\n    }\n}",
  "sourcePath": "/Users/Xinyi/CoinSeason/courses/smart-contract/Team-G/Lesson-4/assignment/63_王昕屹_第四次作业/contracts/Payroll.sol",
  "compiler": {
    "name": "solc",
    "version": "0.4.19+commit.c4cbbb05.Emscripten.clang"
  },
  "schemaVersion": "2.0.0",
  "updatedAt": "2018-03-25T08:11:40.152Z"
}