{
  "contractName": "Payroll",
  "abi": [
    {
      "constant": true,
      "inputs": [],
      "name": "owner",
      "outputs": [
        {
          "name": "",
          "type": "address"
        }
      ],
      "payable": false,
      "stateMutability": "view",
      "type": "function"
    },
    {
      "constant": true,
      "inputs": [
        {
          "name": "",
          "type": "address"
        }
      ],
      "name": "employees",
      "outputs": [
        {
          "name": "id",
          "type": "address"
        },
        {
          "name": "salary",
          "type": "uint256"
        },
        {
          "name": "lastPayDay",
          "type": "uint256"
        }
      ],
      "payable": false,
      "stateMutability": "view",
      "type": "function"
    },
    {
      "constant": false,
      "inputs": [
        {
          "name": "newOwner",
          "type": "address"
        }
      ],
      "name": "transferOwnership",
      "outputs": [],
      "payable": false,
      "stateMutability": "nonpayable",
      "type": "function"
    },
    {
      "anonymous": false,
      "inputs": [
        {
          "indexed": false,
          "name": "employee",
          "type": "address"
        }
      ],
      "name": "NewEmployeeExist",
      "type": "event"
    },
    {
      "anonymous": false,
      "inputs": [
        {
          "indexed": false,
          "name": "employee",
          "type": "address"
        }
      ],
      "name": "NewEmployeeIsNull",
      "type": "event"
    },
    {
      "anonymous": false,
      "inputs": [
        {
          "indexed": false,
          "name": "balance",
          "type": "uint256"
        }
      ],
      "name": "NewFund",
      "type": "event"
    },
    {
      "anonymous": false,
      "inputs": [
        {
          "indexed": false,
          "name": "employee",
          "type": "address"
        }
      ],
      "name": "UpdateInfo",
      "type": "event"
    },
    {
      "anonymous": false,
      "inputs": [
        {
          "indexed": false,
          "name": "employee",
          "type": "address"
        }
      ],
      "name": "GetMyWage",
      "type": "event"
    },
    {
      "anonymous": false,
      "inputs": [
        {
          "indexed": true,
          "name": "previousOwner",
          "type": "address"
        },
        {
          "indexed": true,
          "name": "newOwner",
          "type": "address"
        }
      ],
      "name": "OwnershipTransferred",
      "type": "event"
    },
    {
      "constant": false,
      "inputs": [
        {
          "name": "employeeId",
          "type": "address"
        },
        {
          "name": "salary",
          "type": "uint256"
        }
      ],
      "name": "addEmployee",
      "outputs": [],
      "payable": false,
      "stateMutability": "nonpayable",
      "type": "function"
    },
    {
      "constant": false,
      "inputs": [
        {
          "name": "employeeId",
          "type": "address"
        }
      ],
      "name": "removeEmployee",
      "outputs": [],
      "payable": false,
      "stateMutability": "nonpayable",
      "type": "function"
    },
    {
      "constant": true,
      "inputs": [
        {
          "name": "index",
          "type": "uint256"
        }
      ],
      "name": "checkEmployee",
      "outputs": [
        {
          "name": "employeeId",
          "type": "address"
        },
        {
          "name": "salary",
          "type": "uint256"
        },
        {
          "name": "lastPayDay",
          "type": "uint256"
        }
      ],
      "payable": false,
      "stateMutability": "view",
      "type": "function"
    },
    {
      "constant": true,
      "inputs": [],
      "name": "checkInfo",
      "outputs": [
        {
          "name": "balance",
          "type": "uint256"
        },
        {
          "name": "runTimes",
          "type": "uint256"
        },
        {
          "name": "employeeCount",
          "type": "uint256"
        }
      ],
      "payable": false,
      "stateMutability": "view",
      "type": "function"
    },
    {
      "constant": false,
      "inputs": [
        {
          "name": "ads",
          "type": "address"
        },
        {
          "name": "sly",
          "type": "uint256"
        }
      ],
      "name": "updateEmployeeMsg",
      "outputs": [],
      "payable": false,
      "stateMutability": "nonpayable",
      "type": "function"
    },
    {
      "constant": false,
      "inputs": [
        {
          "name": "initialAds",
          "type": "address"
        },
        {
          "name": "ads",
          "type": "address"
        },
        {
          "name": "index",
          "type": "uint256"
        }
      ],
      "name": "changePaymentAddress",
      "outputs": [],
      "payable": false,
      "stateMutability": "nonpayable",
      "type": "function"
    },
    {
      "constant": false,
      "inputs": [],
      "name": "addFund",
      "outputs": [
        {
          "name": "",
          "type": "uint256"
        }
      ],
      "payable": true,
      "stateMutability": "payable",
      "type": "function"
    },
    {
      "constant": true,
      "inputs": [],
      "name": "getPayTimes",
      "outputs": [
        {
          "name": "",
          "type": "uint256"
        }
      ],
      "payable": false,
      "stateMutability": "view",
      "type": "function"
    },
    {
      "constant": true,
      "inputs": [],
      "name": "hasEnoughPay",
      "outputs": [
        {
          "name": "",
          "type": "bool"
        }
      ],
      "payable": false,
      "stateMutability": "view",
      "type": "function"
    },
    {
      "constant": false,
      "inputs": [],
      "name": "getMyWage",
      "outputs": [],
      "payable": false,
      "stateMutability": "nonpayable",
      "type": "function"
    }
  ],
  "bytecode": "0x606060405260006001556000600255336000806101000a81548173ffffffffffffffffffffffffffffffffffffffff021916908373ffffffffffffffffffffffffffffffffffffffff160217905550611a8e8061005d6000396000f3006060604052600436106100c5576000357c0100000000000000000000000000000000000000000000000000000000900463ffffffff1680630f876c98146100ca578063266d02a11461010c57806381d48cfa1461012157806385a962581461014e5780638da5cb5b1461018557806396b02696146101da578063a2f09dfa1461024b578063d067894714610269578063d108177a146102f0578063daf0389f14610329578063e7fd9a1314610352578063f2fde38b14610394578063fb52d99b146103cd575b600080fd5b34156100d557600080fd5b61010a600480803573ffffffffffffffffffffffffffffffffffffffff1690602001909190803590602001909190505061042e565b005b341561011757600080fd5b61011f610764565b005b341561012c57600080fd5b610134610933565b604051808215151515815260200191505060405180910390f35b341561015957600080fd5b610161610946565b60405180848152602001838152602001828152602001935050505060405180910390f35b341561019057600080fd5b610198610985565b604051808273ffffffffffffffffffffffffffffffffffffffff1673ffffffffffffffffffffffffffffffffffffffff16815260200191505060405180910390f35b34156101e557600080fd5b6101fb60048080359060200190919050506109aa565b604051808473ffffffffffffffffffffffffffffffffffffffff1673ffffffffffffffffffffffffffffffffffffffff168152602001838152602001828152602001935050505060405180910390f35b610253610a9f565b6040518082815260200191505060405180910390f35b341561027457600080fd5b6102a0600480803573ffffffffffffffffffffffffffffffffffffffff16906020019091905050610b0c565b604051808473ffffffffffffffffffffffffffffffffffffffff1673ffffffffffffffffffffffffffffffffffffffff168152602001838152602001828152602001935050505060405180910390f35b34156102fb57600080fd5b610327600480803573ffffffffffffffffffffffffffffffffffffffff16906020019091905050610b56565b005b341561033457600080fd5b61033c610f70565b6040518082815260200191505060405180910390f35b341561035d57600080fd5b610392600480803573ffffffffffffffffffffffffffffffffffffffff16906020019091908035906020019091905050610fba565b005b341561039f57600080fd5b6103cb600480803573ffffffffffffffffffffffffffffffffffffffff169060200190919050506112c2565b005b34156103d857600080fd5b61042c600480803573ffffffffffffffffffffffffffffffffffffffff1690602001909190803573ffffffffffffffffffffffffffffffffffffffff16906020019091908035906020019091905050611417565b005b60008060009054906101000a900473ffffffffffffffffffffffffffffffffffffffff1673ffffffffffffffffffffffffffffffffffffffff163373ffffffffffffffffffffffffffffffffffffffff1614151561048b57600080fd5b826000600360008373ffffffffffffffffffffffffffffffffffffffff1673ffffffffffffffffffffffffffffffffffffffff168152602001908152602001600020905060008160000160009054906101000a900473ffffffffffffffffffffffffffffffffffffffff1673ffffffffffffffffffffffffffffffffffffffff161415151561051657fe5b600360008673ffffffffffffffffffffffffffffffffffffffff1673ffffffffffffffffffffffffffffffffffffffff16815260200190815260200160002092506105d683606060405190810160405290816000820160009054906101000a900473ffffffffffffffffffffffffffffffffffffffff1673ffffffffffffffffffffffffffffffffffffffff1673ffffffffffffffffffffffffffffffffffffffff168152602001600182015481526020016002820154815250506117ff565b6105ef836001015460015461188b90919063ffffffff16565b600181905550610610670de0b6b3a7640000856118a490919063ffffffff16565b600360008773ffffffffffffffffffffffffffffffffffffffff1673ffffffffffffffffffffffffffffffffffffffff1681526020019081526020016000206001018190555042600360008773ffffffffffffffffffffffffffffffffffffffff1673ffffffffffffffffffffffffffffffffffffffff168152602001908152602001600020600201819055506106f4600360008773ffffffffffffffffffffffffffffffffffffffff1673ffffffffffffffffffffffffffffffffffffffff168152602001908152602001600020600101546001546118df90919063ffffffff16565b6001819055507f2ace295097f779f3bddd0f191a587cb1f99c72e351c7cd8404e444fba407c7f685604051808273ffffffffffffffffffffffffffffffffffffffff1673ffffffffffffffffffffffffffffffffffffffff16815260200191505060405180910390a15050505050565b600080336000600360008373ffffffffffffffffffffffffffffffffffffffff1673ffffffffffffffffffffffffffffffffffffffff168152602001908152602001600020905060008160000160009054906101000a900473ffffffffffffffffffffffffffffffffffffffff1673ffffffffffffffffffffffffffffffffffffffff16141515156107f257fe5b600360003373ffffffffffffffffffffffffffffffffffffffff1673ffffffffffffffffffffffffffffffffffffffff1681526020019081526020016000209350600a84600201540192504283111580156108515750610850610933565b5b151561085957fe5b8284600201819055508360000160009054906101000a900473ffffffffffffffffffffffffffffffffffffffff1673ffffffffffffffffffffffffffffffffffffffff166108fc85600101549081150290604051600060405180830381858888f1935050505015156108ca57600080fd5b7f29b831e8b29527289b34da6b292cdbbf760a39f5611511f14e6d930b3d97c0a733604051808273ffffffffffffffffffffffffffffffffffffffff1673ffffffffffffffffffffffffffffffffffffffff16815260200191505060405180910390a150505050565b6000600161093f610f70565b1015905090565b60008060003073ffffffffffffffffffffffffffffffffffffffff163192506002549050600060015411156109805761097d610f70565b91505b909192565b6000809054906101000a900473ffffffffffffffffffffffffffffffffffffffff1681565b6000806000806000809054906101000a900473ffffffffffffffffffffffffffffffffffffffff1673ffffffffffffffffffffffffffffffffffffffff163373ffffffffffffffffffffffffffffffffffffffff16141515610a0b57600080fd5b600485815481101515610a1a57fe5b906000526020600020900160009054906101000a900473ffffffffffffffffffffffffffffffffffffffff169350600360008573ffffffffffffffffffffffffffffffffffffffff1673ffffffffffffffffffffffffffffffffffffffff16815260200190815260200160002090508060010154925080600201549150509193909250565b60007fbe1e4b1ad5d83f75925e2f00ab046fbab2ee90d0dbdf7f2049d037a48ada09f33073ffffffffffffffffffffffffffffffffffffffff16316040518082815260200191505060405180910390a13073ffffffffffffffffffffffffffffffffffffffff1631905090565b60036020528060005260406000206000915090508060000160009054906101000a900473ffffffffffffffffffffffffffffffffffffffff16908060010154908060020154905083565b6000806000806000809054906101000a900473ffffffffffffffffffffffffffffffffffffffff1673ffffffffffffffffffffffffffffffffffffffff163373ffffffffffffffffffffffffffffffffffffffff16141515610bb757600080fd5b846000600360008373ffffffffffffffffffffffffffffffffffffffff1673ffffffffffffffffffffffffffffffffffffffff168152602001908152602001600020905060008160000160009054906101000a900473ffffffffffffffffffffffffffffffffffffffff1673ffffffffffffffffffffffffffffffffffffffff1614151515610c4257fe5b600360008873ffffffffffffffffffffffffffffffffffffffff1673ffffffffffffffffffffffffffffffffffffffff1681526020019081526020016000209550610d0286606060405190810160405290816000820160009054906101000a900473ffffffffffffffffffffffffffffffffffffffff1673ffffffffffffffffffffffffffffffffffffffff1673ffffffffffffffffffffffffffffffffffffffff168152602001600182015481526020016002820154815250506117ff565b610d59600360008973ffffffffffffffffffffffffffffffffffffffff1673ffffffffffffffffffffffffffffffffffffffff1681526020019081526020016000206001015460015461188b90919063ffffffff16565b600181905550600360008873ffffffffffffffffffffffffffffffffffffffff1673ffffffffffffffffffffffffffffffffffffffff168152602001908152602001600020600080820160006101000a81549073ffffffffffffffffffffffffffffffffffffffff0219169055600182016000905560028201600090555050610de1876118fd565b945094506004805490509250600484815481101515610dfc57fe5b906000526020600020900160006101000a81549073ffffffffffffffffffffffffffffffffffffffff0219169055848015610e3657508284105b15610ee857600460018403815481101515610e4d57fe5b906000526020600020900160009054906101000a900473ffffffffffffffffffffffffffffffffffffffff16600485815481101515610e8857fe5b906000526020600020900160006101000a81548173ffffffffffffffffffffffffffffffffffffffff021916908373ffffffffffffffffffffffffffffffffffffffff1602179055506004805480919060019003610ee691906119d9565b505b610efe600160025461188b90919063ffffffff16565b6002819055507f2ace295097f779f3bddd0f191a587cb1f99c72e351c7cd8404e444fba407c7f687604051808273ffffffffffffffffffffffffffffffffffffffff1673ffffffffffffffffffffffffffffffffffffffff16815260200191505060405180910390a150505050505050565b600080600060015414610fae57610fa96001543073ffffffffffffffffffffffffffffffffffffffff16316119be90919063ffffffff16565b610fb1565b60005b90508091505090565b6000610fc4611a05565b6000809054906101000a900473ffffffffffffffffffffffffffffffffffffffff1673ffffffffffffffffffffffffffffffffffffffff163373ffffffffffffffffffffffffffffffffffffffff1614151561101f57600080fd5b600360008573ffffffffffffffffffffffffffffffffffffffff1673ffffffffffffffffffffffffffffffffffffffff168152602001908152602001600020915060008260000160009054906101000a900473ffffffffffffffffffffffffffffffffffffffff1673ffffffffffffffffffffffffffffffffffffffff161415611254576060604051908101604052808573ffffffffffffffffffffffffffffffffffffffff1681526020016110e6670de0b6b3a7640000866118a490919063ffffffff16565b815260200142815250905080600360008673ffffffffffffffffffffffffffffffffffffffff1673ffffffffffffffffffffffffffffffffffffffff16815260200190815260200160002060008201518160000160006101000a81548173ffffffffffffffffffffffffffffffffffffffff021916908373ffffffffffffffffffffffffffffffffffffffff16021790555060208201518160010155604082015181600201559050506111e6600360008673ffffffffffffffffffffffffffffffffffffffff1673ffffffffffffffffffffffffffffffffffffffff168152602001908152602001600020600101546001546118df90919063ffffffff16565b6001819055507f7988e11d8d3b3b5a6a401ac182388edcb5e6751c54bee5dbefa4315cc3b2016d84604051808273ffffffffffffffffffffffffffffffffffffffff1673ffffffffffffffffffffffffffffffffffffffff16815260200191505060405180910390a16112bc565b7f9243cc640ff0c212e031aa0d3cc53cdc3c271d1afb874c224b9b5349bb0c56f484604051808273ffffffffffffffffffffffffffffffffffffffff1673ffffffffffffffffffffffffffffffffffffffff16815260200191505060405180910390a1600080fd5b50505050565b6000809054906101000a900473ffffffffffffffffffffffffffffffffffffffff1673ffffffffffffffffffffffffffffffffffffffff163373ffffffffffffffffffffffffffffffffffffffff1614151561131d57600080fd5b600073ffffffffffffffffffffffffffffffffffffffff168173ffffffffffffffffffffffffffffffffffffffff161415151561135957600080fd5b8073ffffffffffffffffffffffffffffffffffffffff166000809054906101000a900473ffffffffffffffffffffffffffffffffffffffff1673ffffffffffffffffffffffffffffffffffffffff167f8be0079c531659141344cd1fd0a4f28419497f9722a3daafe3b4186f6b6457e060405160405180910390a3806000806101000a81548173ffffffffffffffffffffffffffffffffffffffff021916908373ffffffffffffffffffffffffffffffffffffffff16021790555050565b6000611421611a05565b6000809054906101000a900473ffffffffffffffffffffffffffffffffffffffff1673ffffffffffffffffffffffffffffffffffffffff163373ffffffffffffffffffffffffffffffffffffffff1614151561147c57600080fd5b846000600360008373ffffffffffffffffffffffffffffffffffffffff1673ffffffffffffffffffffffffffffffffffffffff168152602001908152602001600020905060008160000160009054906101000a900473ffffffffffffffffffffffffffffffffffffffff1673ffffffffffffffffffffffffffffffffffffffff161415151561150757fe5b600360008873ffffffffffffffffffffffffffffffffffffffff1673ffffffffffffffffffffffffffffffffffffffff16815260200190815260200160002093506115c784606060405190810160405290816000820160009054906101000a900473ffffffffffffffffffffffffffffffffffffffff1673ffffffffffffffffffffffffffffffffffffffff1673ffffffffffffffffffffffffffffffffffffffff168152602001600182015481526020016002820154815250506117ff565b856004868154811015156115d757fe5b906000526020600020900160006101000a81548173ffffffffffffffffffffffffffffffffffffffff021916908373ffffffffffffffffffffffffffffffffffffffff1602179055506060604051908101604052808773ffffffffffffffffffffffffffffffffffffffff1681526020018560010154815260200142815250925082600360008873ffffffffffffffffffffffffffffffffffffffff1673ffffffffffffffffffffffffffffffffffffffff16815260200190815260200160002060008201518160000160006101000a81548173ffffffffffffffffffffffffffffffffffffffff021916908373ffffffffffffffffffffffffffffffffffffffff1602179055506020820151816001015560408201518160020155905050600360008560000160009054906101000a900473ffffffffffffffffffffffffffffffffffffffff1673ffffffffffffffffffffffffffffffffffffffff1673ffffffffffffffffffffffffffffffffffffffff168152602001908152602001600020600080820160006101000a81549073ffffffffffffffffffffffffffffffffffffffff02191690556001820160009055600282016000905550507f2ace295097f779f3bddd0f191a587cb1f99c72e351c7cd8404e444fba407c7f686604051808273ffffffffffffffffffffffffffffffffffffffff1673ffffffffffffffffffffffffffffffffffffffff16815260200191505060405180910390a150505050505050565b6000611841600a61183361182085604001514261188b90919063ffffffff16565b85602001516118a490919063ffffffff16565b6119be90919063ffffffff16565b9050816000015173ffffffffffffffffffffffffffffffffffffffff166108fc829081150290604051600060405180830381858888f19350505050151561188757600080fd5b5050565b600082821115151561189957fe5b818303905092915050565b60008060008414156118b957600091506118d8565b82840290508284828115156118ca57fe5b041415156118d457fe5b8091505b5092915050565b60008082840190508381101515156118f357fe5b8091505092915050565b600080600080600080600480549050935060009250600090505b838110156119ac578673ffffffffffffffffffffffffffffffffffffffff1660048281548110151561194557fe5b906000526020600020900160009054906101000a900473ffffffffffffffffffffffffffffffffffffffff1673ffffffffffffffffffffffffffffffffffffffff1614151561199b57828060010193505061199f565b8091505b8080600101915050611917565b83831415955081945050505050915091565b60008082848115156119cc57fe5b0490508091505092915050565b815481835581811511611a00578183600052602060002091820191016119ff9190611a3d565b5b505050565b606060405190810160405280600073ffffffffffffffffffffffffffffffffffffffff16815260200160008152602001600081525090565b611a5f91905b80821115611a5b576000816000905550600101611a43565b5090565b905600a165627a7a7230582004ef1f73a6faa00a0c70e782ee673a545b03a0366d064ed4a3e4e00dfae29a170029",
  "source": "/**\n * @author: 花夏\n * @date:   2018-03-16\n * @Email:  liubiao@itoxs.com\n * 第三节：  编写多员工薪资系统，并继续添加新功能,如何减少GAS消耗\n * 在查看是否足够支付员工薪水时，算上手续费\n * @Copyright: Copyright (c) 2018 by huarxia. All Rights Reserved.\n */\n\npragma solidity ^0.4.18;\nimport 'zeppelin-solidity/contracts/ownership/Ownable.sol';\nimport 'zeppelin-solidity/contracts/math/SafeMath.sol';\n// 声明合约方法\ncontract Payroll is Ownable {\n    // 发薪时间步长\n    // uint constant payStep = 30 days;\n    // 方便调试改成 10s\n    uint constant payStep = 10 seconds;\n    uint private totalSalary = 0;\n    uint totalEmployee = 0;\n    using SafeMath for uint;\n    // 定义个strut类型的employee数组\n    struct Employee {\n        // 因为地址是唯一的，所以将地址设为Id\n        address id;\n        uint salary;\n        uint lastPayDay;\n    }\n    // Employee [] employees;\n    // 使用map结构方便查询降低gas\n    mapping (address => Employee) public employees;\n    address[] employeesListArr;\n\n    /**\n     * 定义一个modifier 判断是否包含这个员工\n     */\n    modifier employeeExist(address ads) {\n        var employee = employees[ads];\n        assert(employee.id != 0x0);\n        _;\n    }\n\n    /**\n     * [NewEmployeeExist] 新增一个已存在的员工\n     */\n    event NewEmployeeExist(\n        address employee\n    );\n    /**\n     * [NewEmployeeIsNull] 新增一个不存在的员工\n     */\n    event NewEmployeeIsNull(\n        address employee\n    );\n    /**\n     * [NewFund] 增加余额\n     */\n    event NewFund(\n        uint balance\n    );\n    /**\n     * [UpdateInfo] 更新信息\n     */\n    event UpdateInfo(\n        address employee\n    );\n    /**\n     * [UpdateInfo] 更新信息\n     */\n    event GetMyWage(\n        address employee\n    );\n\n    /**\n     * [_paySurplusWages 内置支付剩余薪水函数，有木有和js类似？]\n     * @author 花夏 liubiao@itoxs.com\n     * private 内部函数请声明私有化\n     * @param  employee [需要支付的员工数据信息]\n     */\n    function _paySurplusWages(Employee employee) private {\n        // assert(employee.id != 0x0);\n        uint payment = employee.salary\n                    .mul(now.sub(employee.lastPayDay))\n                    .div(payStep);\n        employee.id.transfer(payment);\n    }\n\n    /**\n     * [_isRepeatEmployee] 判断是否存在\n     *\n     * @author 花夏 liubiao@itoxs.com\n     * @param      ads [传入判断地址]\n     * @return         [返回存在与否以及下标]\n     */\n    function _isRepeatEmployee(address ads) private view returns(bool repeat, uint index) {\n        uint len = employeesListArr.length;\n        uint num = 0;\n        uint _index;\n        for (uint i = 0; i < len; i++) {\n            if (employeesListArr[i] != ads) {\n                num++;\n            } else {\n                _index = i;\n            }\n        }\n        repeat = (num != len);\n        index =_index;\n        \n    }\n\n    /**\n     * [addEmployee 添加一个新员工地址]\n     * @author 花夏 liubiao@itoxs.com\n     * @param  employeeId [新员工地址]\n     * @param  salary    [应付的月薪]\n     */\n    function addEmployee(address employeeId, uint salary) public onlyOwner {\n        var employee = employees[employeeId];\n        // 如果不存在\n        if (employee.id == 0x0) {\n            // 添加员工\n            Employee memory employeeTemp = Employee(employeeId, salary.mul(1 ether), now);\n            employees[employeeId] = employeeTemp;\n            totalSalary = totalSalary.add(employees[employeeId].salary);\n            NewEmployeeIsNull(employeeId);\n        }else {\n            NewEmployeeExist(employeeId);\n            revert();\n        }\n    }\n\n    /**\n     * [removeEmployee 删除一个员工并支付其剩余薪水]\n     * @author 花夏 liubiao@itoxs.com\n     * @param  employeeId [需要删除员工的地址]\n     */\n    function removeEmployee(address employeeId) public onlyOwner employeeExist(employeeId) {\n        // 查找存在的需要移除的员工\n        var employee = employees[employeeId];\n        // 我已经在支付函数里做了判断拉~~\n        _paySurplusWages(employee);\n        totalSalary = totalSalary.sub(employees[employeeId].salary);\n        delete employees[employeeId];\n        var (repeat, index) = _isRepeatEmployee(employeeId);\n        uint len = employeesListArr.length;\n        delete employeesListArr[index];\n        if (repeat && index < len) {\n            employeesListArr[index] = employeesListArr[len - 1];\n            employeesListArr.length--;\n        }\n        totalEmployee = totalEmployee.sub(1);\n        UpdateInfo(employeeId);\n    }\n\n    /**\n     * [checkEmployee] 检查员工信息\n     *\n     * @author 花夏 liubiao@itoxs.com\n     * @param  index [下标]\n     * @return      [员工所有信息]\n     */\n    function checkEmployee(uint index) public view onlyOwner returns (address employeeId, uint salary, uint lastPayDay) {\n        employeeId = employeesListArr[index];\n        var employee = employees[employeeId];\n        salary = employee.salary;\n        lastPayDay = employee.lastPayDay;\n    }\n\n    /**\n     * [checkInfo] 获取合约信息\n     *\n     * @author 花夏 liubiao@itoxs.com\n     * @return [返回合约的信息 包括总金额、支付次数、员工总数]\n     */\n    function checkInfo() public view returns (uint balance, uint runTimes, uint employeeCount) {\n        balance = this.balance;\n        employeeCount = totalEmployee;\n        if (totalSalary > 0) {\n            runTimes = getPayTimes();\n        }\n    }\n    /**\n     * [updateEmployeeMsg 更新员工地址或者月薪基数]\n     * @author 花夏 liubiao@itoxs.com\n     * @param  ads [更新地址]\n     * @param  sly [更新的月薪基数]\n     * ** 填写地址处一定要使用英文状态下的双引号 \"\" ***\n     * 例如 \"0xca35b7d915458ef540ade6068dfe2f44e8fa733c\"\n     */\n    function updateEmployeeMsg(address ads, uint sly) public onlyOwner employeeExist(ads) {\n        // 查找存在的员工\n        var employee = employees[ads];\n        // 我已经在支付函数里做了判断拉~~\n        _paySurplusWages(employee);\n        totalSalary = totalSalary.sub(employee.salary);\n        // employees[ads].id = ads;\n        employees[ads].salary = sly.mul(1 ether);\n        employees[ads].lastPayDay = now;\n        totalSalary = totalSalary.add(employees[ads].salary);\n        UpdateInfo(ads);\n    }\n\n    /**\n     * [changePaymentAddress]  更改员工薪水地址，这个函数要求只能员工自己能调用，老板不能调用\n     *\n     * @author 花夏 liubiao@itoxs.com\n     * @param  initialAds [旧地址]\n     * @param  ads [新地址]\n     * @return     [description]\n     */\n    function changePaymentAddress(address initialAds, address ads, uint index) public onlyOwner employeeExist(initialAds) {\n        var employee = employees[initialAds];\n        _paySurplusWages(employee);\n        employeesListArr[index] = ads;\n        // 赋值并删除\n        Employee memory employeeTemp = Employee(ads, employee.salary, now);\n        employees[ads] = employeeTemp;\n        delete employees[employee.id];\n        UpdateInfo(ads);\n    }\n    \n    /**\n     * [addFund  添加支付金到合约地址]\n     * @author   花夏 liubiao@itoxs.com\n     * @return   返回合约的余额\n     */\n    function addFund() public payable returns(uint) {\n        // this 指向合约对象\n        NewFund(this.balance);\n        return this.balance;\n    }\n\n    /**\n     * [getPayTimes 获取合约地址还能支付薪水的次数]\n     * @author 花夏 liubiao@itoxs.com\n     * @return [返回合约地址还能支付薪水的次数]\n     */\n    function getPayTimes() view public returns(uint) {\n        uint times = totalSalary == 0 ? 0 : this.balance.div(totalSalary);\n        return times;\n    }\n\n    /**\n     * [hasEnoughPay 查看是否支付足够]\n     * @author 花夏 liubiao@itoxs.com\n     * @return [返回是否足够支付]\n     */\n    function hasEnoughPay() view public returns(bool) {\n        return getPayTimes() >= 1;\n    }\n\n    /**\n     * [getMyWage 员工自己领取自己的工资]\n     * @author 花夏 liubiao@itoxs.com\n     */\n    function getMyWage() public employeeExist(msg.sender) {\n        var employee = employees[msg.sender];\n        uint curPayDay = employee.lastPayDay + payStep;\n        assert(curPayDay <= now && hasEnoughPay());\n        // 为啥这几个if判断个分开写？不使用 || ？我分别弹出消息提醒用户啊！\n        employee.lastPayDay = curPayDay;\n        // 这里千万不要交换顺序哦，我猜测可以更改本地时间干坏事情\n        employee.id.transfer(employee.salary);\n        GetMyWage(msg.sender);\n    }\n}\n",
  "sourcePath": "/Users/liubiao/code/Team-G/vue-payroll/contracts/Payroll.sol",
  "compiler": {
    "name": "solc",
    "version": "0.4.19+commit.c4cbbb05.Emscripten.clang"
  },
  "schemaVersion": "2.0.0",
  "updatedAt": "2018-03-31T09:50:13.027Z"
}