{
  "contractName": "Payroll",
  "abi": [
    {
      "constant": true,
      "inputs": [],
      "name": "owner",
      "outputs": [
        {
          "name": "",
          "type": "address"
        }
      ],
      "payable": false,
      "stateMutability": "view",
      "type": "function"
    },
    {
      "constant": true,
      "inputs": [
        {
          "name": "",
          "type": "address"
        }
      ],
      "name": "employees",
      "outputs": [
        {
          "name": "id",
          "type": "address"
        },
        {
          "name": "salary",
          "type": "uint256"
        },
        {
          "name": "lastPayDay",
          "type": "uint256"
        }
      ],
      "payable": false,
      "stateMutability": "view",
      "type": "function"
    },
    {
      "constant": false,
      "inputs": [
        {
          "name": "newOwner",
          "type": "address"
        }
      ],
      "name": "transferOwnership",
      "outputs": [],
      "payable": false,
      "stateMutability": "nonpayable",
      "type": "function"
    },
    {
      "anonymous": false,
      "inputs": [
        {
          "indexed": true,
          "name": "previousOwner",
          "type": "address"
        },
        {
          "indexed": true,
          "name": "newOwner",
          "type": "address"
        }
      ],
      "name": "OwnershipTransferred",
      "type": "event"
    },
    {
      "constant": false,
      "inputs": [
        {
          "name": "employeeId",
          "type": "address"
        },
        {
          "name": "salary",
          "type": "uint256"
        }
      ],
      "name": "addEmployee",
      "outputs": [],
      "payable": false,
      "stateMutability": "nonpayable",
      "type": "function"
    },
    {
      "constant": false,
      "inputs": [
        {
          "name": "employeeId",
          "type": "address"
        }
      ],
      "name": "removeEmployee",
      "outputs": [],
      "payable": false,
      "stateMutability": "nonpayable",
      "type": "function"
    },
    {
      "constant": false,
      "inputs": [
        {
          "name": "ads",
          "type": "address"
        },
        {
          "name": "sly",
          "type": "uint256"
        }
      ],
      "name": "updateEmployeeMsg",
      "outputs": [],
      "payable": false,
      "stateMutability": "nonpayable",
      "type": "function"
    },
    {
      "constant": false,
      "inputs": [
        {
          "name": "ads",
          "type": "address"
        }
      ],
      "name": "changePaymentAddress",
      "outputs": [],
      "payable": false,
      "stateMutability": "nonpayable",
      "type": "function"
    },
    {
      "constant": false,
      "inputs": [],
      "name": "addFund",
      "outputs": [
        {
          "name": "",
          "type": "uint256"
        }
      ],
      "payable": true,
      "stateMutability": "payable",
      "type": "function"
    },
    {
      "constant": true,
      "inputs": [],
      "name": "getPayTimes",
      "outputs": [
        {
          "name": "",
          "type": "uint256"
        }
      ],
      "payable": false,
      "stateMutability": "view",
      "type": "function"
    },
    {
      "constant": true,
      "inputs": [],
      "name": "hasEnoughPay",
      "outputs": [
        {
          "name": "",
          "type": "bool"
        }
      ],
      "payable": false,
      "stateMutability": "view",
      "type": "function"
    },
    {
      "constant": false,
      "inputs": [],
      "name": "getMyWage",
      "outputs": [],
      "payable": false,
      "stateMutability": "nonpayable",
      "type": "function"
    }
  ],
  "bytecode": "0x60606040526000600155336000806101000a81548173ffffffffffffffffffffffffffffffffffffffff021916908373ffffffffffffffffffffffffffffffffffffffff160217905550610fda806100586000396000f3006060604052600436106100af576000357c0100000000000000000000000000000000000000000000000000000000900463ffffffff1680630f876c98146100b4578063266d02a1146100f65780637124d6131461010b57806381d48cfa146101445780638da5cb5b14610171578063a2f09dfa146101c6578063d0678947146101e4578063d108177a1461026b578063daf0389f146102a4578063e7fd9a13146102cd578063f2fde38b1461030f575b600080fd5b34156100bf57600080fd5b6100f4600480803573ffffffffffffffffffffffffffffffffffffffff16906020019091908035906020019091905050610348565b005b341561010157600080fd5b610109610676565b005b341561011657600080fd5b610142600480803573ffffffffffffffffffffffffffffffffffffffff169060200190919050506107e2565b005b341561014f57600080fd5b610157610907565b604051808215151515815260200191505060405180910390f35b341561017c57600080fd5b61018461091a565b604051808273ffffffffffffffffffffffffffffffffffffffff1673ffffffffffffffffffffffffffffffffffffffff16815260200191505060405180910390f35b6101ce61093f565b6040518082815260200191505060405180910390f35b34156101ef57600080fd5b61021b600480803573ffffffffffffffffffffffffffffffffffffffff1690602001909190505061095e565b604051808473ffffffffffffffffffffffffffffffffffffffff1673ffffffffffffffffffffffffffffffffffffffff168152602001838152602001828152602001935050505060405180910390f35b341561027657600080fd5b6102a2600480803573ffffffffffffffffffffffffffffffffffffffff169060200190919050506109a8565b005b34156102af57600080fd5b6102b7610c21565b6040518082815260200191505060405180910390f35b34156102d857600080fd5b61030d600480803573ffffffffffffffffffffffffffffffffffffffff16906020019091908035906020019091905050610c64565b005b341561031a57600080fd5b610346600480803573ffffffffffffffffffffffffffffffffffffffff16906020019091905050610dbc565b005b60008060009054906101000a900473ffffffffffffffffffffffffffffffffffffffff1673ffffffffffffffffffffffffffffffffffffffff163373ffffffffffffffffffffffffffffffffffffffff161415156103a557600080fd5b826000600260008373ffffffffffffffffffffffffffffffffffffffff1673ffffffffffffffffffffffffffffffffffffffff168152602001908152602001600020905060008160000160009054906101000a900473ffffffffffffffffffffffffffffffffffffffff1673ffffffffffffffffffffffffffffffffffffffff161415151561043057fe5b600260008673ffffffffffffffffffffffffffffffffffffffff1673ffffffffffffffffffffffffffffffffffffffff16815260200190815260200160002092506104f083606060405190810160405290816000820160009054906101000a900473ffffffffffffffffffffffffffffffffffffffff1673ffffffffffffffffffffffffffffffffffffffff1673ffffffffffffffffffffffffffffffffffffffff16815260200160018201548152602001600282015481525050610f11565b826001015460016000828254039250508190555084600260008773ffffffffffffffffffffffffffffffffffffffff1673ffffffffffffffffffffffffffffffffffffffff16815260200190815260200160002060000160006101000a81548173ffffffffffffffffffffffffffffffffffffffff021916908373ffffffffffffffffffffffffffffffffffffffff160217905550670de0b6b3a76400008402600260008773ffffffffffffffffffffffffffffffffffffffff1673ffffffffffffffffffffffffffffffffffffffff1681526020019081526020016000206001018190555042600260008773ffffffffffffffffffffffffffffffffffffffff1673ffffffffffffffffffffffffffffffffffffffff16815260200190815260200160002060020181905550600260008673ffffffffffffffffffffffffffffffffffffffff1673ffffffffffffffffffffffffffffffffffffffff168152602001908152602001600020600101546001600082825401925050819055505050505050565b600080336000600260008373ffffffffffffffffffffffffffffffffffffffff1673ffffffffffffffffffffffffffffffffffffffff168152602001908152602001600020905060008160000160009054906101000a900473ffffffffffffffffffffffffffffffffffffffff1673ffffffffffffffffffffffffffffffffffffffff161415151561070457fe5b600260003373ffffffffffffffffffffffffffffffffffffffff1673ffffffffffffffffffffffffffffffffffffffff1681526020019081526020016000209350600a84600201540192504283111580156107635750610762610907565b5b151561076b57fe5b8284600201819055508360000160009054906101000a900473ffffffffffffffffffffffffffffffffffffffff1673ffffffffffffffffffffffffffffffffffffffff166108fc85600101549081150290604051600060405180830381858888f1935050505015156107dc57600080fd5b50505050565b336000600260008373ffffffffffffffffffffffffffffffffffffffff1673ffffffffffffffffffffffffffffffffffffffff16815260200190815260200160002090508173ffffffffffffffffffffffffffffffffffffffff168160000160009054906101000a900473ffffffffffffffffffffffffffffffffffffffff1673ffffffffffffffffffffffffffffffffffffffff1614151561088157fe5b82600260003373ffffffffffffffffffffffffffffffffffffffff1673ffffffffffffffffffffffffffffffffffffffff16815260200190815260200160002060000160006101000a81548173ffffffffffffffffffffffffffffffffffffffff021916908373ffffffffffffffffffffffffffffffffffffffff160217905550505050565b60006001610913610c21565b1015905090565b6000809054906101000a900473ffffffffffffffffffffffffffffffffffffffff1681565b60003073ffffffffffffffffffffffffffffffffffffffff1631905090565b60026020528060005260406000206000915090508060000160009054906101000a900473ffffffffffffffffffffffffffffffffffffffff16908060010154908060020154905083565b60008060009054906101000a900473ffffffffffffffffffffffffffffffffffffffff1673ffffffffffffffffffffffffffffffffffffffff163373ffffffffffffffffffffffffffffffffffffffff16141515610a0557600080fd5b816000600260008373ffffffffffffffffffffffffffffffffffffffff1673ffffffffffffffffffffffffffffffffffffffff168152602001908152602001600020905060008160000160009054906101000a900473ffffffffffffffffffffffffffffffffffffffff1673ffffffffffffffffffffffffffffffffffffffff1614151515610a9057fe5b600260008573ffffffffffffffffffffffffffffffffffffffff1673ffffffffffffffffffffffffffffffffffffffff1681526020019081526020016000209250610b5083606060405190810160405290816000820160009054906101000a900473ffffffffffffffffffffffffffffffffffffffff1673ffffffffffffffffffffffffffffffffffffffff1673ffffffffffffffffffffffffffffffffffffffff16815260200160018201548152602001600282015481525050610f11565b600260008573ffffffffffffffffffffffffffffffffffffffff1673ffffffffffffffffffffffffffffffffffffffff16815260200190815260200160002060010154600160008282540392505081905550600260008573ffffffffffffffffffffffffffffffffffffffff1673ffffffffffffffffffffffffffffffffffffffff168152602001908152602001600020600080820160006101000a81549073ffffffffffffffffffffffffffffffffffffffff021916905560018201600090556002820160009055505050505050565b600080600060015414610c58576001543073ffffffffffffffffffffffffffffffffffffffff1631811515610c5257fe5b04610c5b565b60005b90508091505090565b610c6c610f76565b6000809054906101000a900473ffffffffffffffffffffffffffffffffffffffff1673ffffffffffffffffffffffffffffffffffffffff163373ffffffffffffffffffffffffffffffffffffffff16141515610cc757600080fd5b6060604051908101604052808473ffffffffffffffffffffffffffffffffffffffff168152602001670de0b6b3a76400008402815260200142815250905080600260008573ffffffffffffffffffffffffffffffffffffffff1673ffffffffffffffffffffffffffffffffffffffff16815260200190815260200160002060008201518160000160006101000a81548173ffffffffffffffffffffffffffffffffffffffff021916908373ffffffffffffffffffffffffffffffffffffffff16021790555060208201518160010155604082015181600201559050508060200151600160008282540192505081905550505050565b6000809054906101000a900473ffffffffffffffffffffffffffffffffffffffff1673ffffffffffffffffffffffffffffffffffffffff163373ffffffffffffffffffffffffffffffffffffffff16141515610e1757600080fd5b600073ffffffffffffffffffffffffffffffffffffffff168173ffffffffffffffffffffffffffffffffffffffff1614151515610e5357600080fd5b8073ffffffffffffffffffffffffffffffffffffffff166000809054906101000a900473ffffffffffffffffffffffffffffffffffffffff1673ffffffffffffffffffffffffffffffffffffffff167f8be0079c531659141344cd1fd0a4f28419497f9722a3daafe3b4186f6b6457e060405160405180910390a3806000806101000a81548173ffffffffffffffffffffffffffffffffffffffff021916908373ffffffffffffffffffffffffffffffffffffffff16021790555050565b6000600a82604001514203836020015102811515610f2b57fe5b049050816000015173ffffffffffffffffffffffffffffffffffffffff166108fc829081150290604051600060405180830381858888f193505050501515610f7257600080fd5b5050565b606060405190810160405280600073ffffffffffffffffffffffffffffffffffffffff168152602001600081526020016000815250905600a165627a7a7230582063438043d815e047e49a897cc18881bcf337f6806d7a7667302337b07ef38d7b0029",
  "source": "/**\n * @author: 花夏\n * @date:   2018-03-16\n * @Email:  liubiao@itoxs.com\n * 第三节：  编写多员工薪资系统，并继续添加新功能,如何减少GAS消耗\n * 在查看是否足够支付员工薪水时，算上手续费\n * @Copyright: Copyright (c) 2018 by huarxia. All Rights Reserved.\n */\n\npragma solidity ^0.4.18;\nimport 'zeppelin-solidity/contracts/ownership/Ownable.sol';\n// 声明合约方法\ncontract Payroll is Ownable {\n    // 发薪时间步长\n    // uint constant payStep = 30 days;\n    // 方便调试改成 10s\n    uint constant payStep = 10 seconds;\n    uint private totalSalary = 0;\n    // 定义个strut类型的employee数组\n    struct Employee {\n        // 因为地址是唯一的，所以将地址设为Id\n        address id;\n        uint salary;\n        uint lastPayDay;\n    }\n    // Employee [] employees;\n    // 使用map结构方便查询降低gas\n    mapping (address => Employee) public employees;\n    /**\n     * 定义一个modifier 判断是否包含这个员工\n     */\n    modifier employeeExist(address ads) {\n        var employee = employees[ads];\n        assert(employee.id != 0x0);\n        _;\n    }\n\n    /**\n     *  根据传入的 msg.sender判断是否具有操作权限\n     */\n    modifier isEmpolyee(address employeeId) {\n        var employee = employees[employeeId];\n        assert(employee.id == employeeId);\n        _;\n    }\n    /**\n     * [_paySurplusWages 内置支付剩余薪水函数，有木有和js类似？]\n     * @author 花夏 liubiao@itoxs.com\n     * private 内部函数请声明私有化\n     * @param  employee [需要支付的员工数据信息]\n     */\n    function _paySurplusWages(Employee employee) private {\n        // assert(employee.id != 0x0);\n        uint paySurplusWages = employee.salary * (now - employee.lastPayDay) / payStep;\n        employee.id.transfer(paySurplusWages);\n    }\n\n    /**\n     * [addEmployee 添加一个新员工地址]\n     * @author 花夏 liubiao@itoxs.com\n     * @param  employeeId [新员工地址]\n     * @param  salary    [应付的月薪]\n     */\n    function addEmployee(address employeeId, uint salary) public onlyOwner {\n        // 添加员工\n        Employee memory employee = Employee(employeeId, salary * 1 ether, now);\n        employees[employeeId] = employee;\n        totalSalary += employee.salary;\n    }\n\n    /**\n     * [removeEmployee 删除一个员工并支付其剩余薪水]\n     * @author 花夏 liubiao@itoxs.com\n     * @param  employeeId [需要删除员工的地址]\n     */\n    function removeEmployee(address employeeId) public onlyOwner employeeExist(employeeId) {\n        // 查找存在的需要移除的员工\n        var employee = employees[employeeId];\n        // 我已经在支付函数里做了判断拉~~\n        _paySurplusWages(employee);\n        totalSalary -= employees[employeeId].salary;\n        delete employees[employeeId];\n    }\n    \n    /**\n     * [updateEmployeeMsg 更新员工地址或者月薪基数]\n     * @author 花夏 liubiao@itoxs.com\n     * @param  ads [更新地址]\n     * @param  sly [更新的月薪基数]\n     * ** 填写地址处一定要使用英文状态下的双引号 \"\" ***\n     * 例如 \"0xca35b7d915458ef540ade6068dfe2f44e8fa733c\"\n     */\n    function updateEmployeeMsg(address ads, uint sly) public onlyOwner employeeExist(ads) {\n        // 查找存在的需要移除的员工\n        var employee = employees[ads];\n        // 我已经在支付函数里做了判断拉~~\n        _paySurplusWages(employee);\n        totalSalary -= employee.salary;\n        employees[ads].id = ads;\n        employees[ads].salary = sly * 1 ether;\n        employees[ads].lastPayDay = now;\n        totalSalary += employees[ads].salary;\n    }\n\n    /**\n     * [changePaymentAddress]  更改员工薪水地址，这个函数要求只能员工自己能调用，老板不能调用\n     *\n     * @author 花夏 liubiao@itoxs.com\n     * @param  ads [新地址]\n     * @return     [description]\n     */\n    function changePaymentAddress(address ads) public isEmpolyee(msg.sender) {\n        employees[msg.sender].id = ads;\n    }\n    \n    /**\n     * [addFund  添加支付金到合约地址]\n     * @author   花夏 liubiao@itoxs.com\n     * @return   返回合约的余额\n     */\n    function addFund() public payable returns(uint) {\n        // this 指向合约对象\n        return this.balance;\n    }\n\n    /**\n     * [getPayTimes 获取合约地址还能支付薪水的次数]\n     * @author 花夏 liubiao@itoxs.com\n     * @return [返回合约地址还能支付薪水的次数]\n     */\n    function getPayTimes() view public returns(uint) {\n        uint times = totalSalary == 0 ? 0 : this.balance / totalSalary;\n        return times;\n    }\n\n    /**\n     * [hasEnoughPay 查看是否支付足够]\n     * @author 花夏 liubiao@itoxs.com\n     * @return [返回是否足够支付]\n     */\n    function hasEnoughPay() view public returns(bool) {\n        return getPayTimes() >= 1;\n    }\n\n    /**\n     * [getMyWage 员工自己领取自己的工资]\n     * @author 花夏 liubiao@itoxs.com\n     */\n    function getMyWage() public employeeExist(msg.sender) {\n        var employee = employees[msg.sender];\n        uint curPayDay = employee.lastPayDay + payStep;\n        assert(curPayDay <= now && hasEnoughPay());\n        // 为啥这几个if判断个分开写？不使用 || ？我分别弹出消息提醒用户啊！\n        employee.lastPayDay = curPayDay;\n        // 这里千万不要交换顺序哦，我猜测可以更改本地时间干坏事情\n        employee.id.transfer(employee.salary);\n    }\n}\n",
  "sourcePath": "/Users/liubiao/code/Team-G/vue-payroll/contracts/Payroll.sol",
  "compiler": {
    "name": "solc",
    "version": "0.4.19+commit.c4cbbb05.Emscripten.clang"
  },
  "schemaVersion": "2.0.0",
  "updatedAt": "2018-03-28T06:46:21.603Z"
}