{
  "contractName": "Payroll",
  "abi": [
    {
      "constant": true,
      "inputs": [],
      "name": "owner",
      "outputs": [
        {
          "name": "",
          "type": "address"
        }
      ],
      "payable": false,
      "stateMutability": "view",
      "type": "function"
    },
    {
      "constant": true,
      "inputs": [
        {
          "name": "",
          "type": "address"
        }
      ],
      "name": "employees",
      "outputs": [
        {
          "name": "id",
          "type": "address"
        },
        {
          "name": "salary",
          "type": "uint256"
        },
        {
          "name": "lastPayDay",
          "type": "uint256"
        }
      ],
      "payable": false,
      "stateMutability": "view",
      "type": "function"
    },
    {
      "constant": false,
      "inputs": [
        {
          "name": "newOwner",
          "type": "address"
        }
      ],
      "name": "transferOwnership",
      "outputs": [],
      "payable": false,
      "stateMutability": "nonpayable",
      "type": "function"
    },
    {
      "anonymous": false,
      "inputs": [
        {
          "indexed": false,
          "name": "employee",
          "type": "address"
        }
      ],
      "name": "NewEmployeeExist",
      "type": "event"
    },
    {
      "anonymous": false,
      "inputs": [
        {
          "indexed": false,
          "name": "employee",
          "type": "address"
        }
      ],
      "name": "NewEmployeeIsNull",
      "type": "event"
    },
    {
      "anonymous": false,
      "inputs": [
        {
          "indexed": false,
          "name": "balance",
          "type": "uint256"
        }
      ],
      "name": "NewFund",
      "type": "event"
    },
    {
      "anonymous": false,
      "inputs": [
        {
          "indexed": false,
          "name": "employee",
          "type": "address"
        }
      ],
      "name": "UpdateInfo",
      "type": "event"
    },
    {
      "anonymous": false,
      "inputs": [
        {
          "indexed": false,
          "name": "employee",
          "type": "address"
        }
      ],
      "name": "GetMyWage",
      "type": "event"
    },
    {
      "anonymous": false,
      "inputs": [
        {
          "indexed": true,
          "name": "previousOwner",
          "type": "address"
        },
        {
          "indexed": true,
          "name": "newOwner",
          "type": "address"
        }
      ],
      "name": "OwnershipTransferred",
      "type": "event"
    },
    {
      "constant": false,
      "inputs": [
        {
          "name": "employeeId",
          "type": "address"
        },
        {
          "name": "salary",
          "type": "uint256"
        }
      ],
      "name": "addEmployee",
      "outputs": [],
      "payable": false,
      "stateMutability": "nonpayable",
      "type": "function"
    },
    {
      "constant": false,
      "inputs": [
        {
          "name": "employeeId",
          "type": "address"
        }
      ],
      "name": "removeEmployee",
      "outputs": [],
      "payable": false,
      "stateMutability": "nonpayable",
      "type": "function"
    },
    {
      "constant": true,
      "inputs": [
        {
          "name": "index",
          "type": "uint256"
        }
      ],
      "name": "checkEmployee",
      "outputs": [
        {
          "name": "employeeId",
          "type": "address"
        },
        {
          "name": "salary",
          "type": "uint256"
        },
        {
          "name": "lastPayDay",
          "type": "uint256"
        }
      ],
      "payable": false,
      "stateMutability": "view",
      "type": "function"
    },
    {
      "constant": true,
      "inputs": [
        {
          "name": "ads",
          "type": "address"
        }
      ],
      "name": "checkEmployeeOfAds",
      "outputs": [
        {
          "name": "employeeId",
          "type": "address"
        },
        {
          "name": "salary",
          "type": "uint256"
        },
        {
          "name": "lastPayDay",
          "type": "uint256"
        }
      ],
      "payable": false,
      "stateMutability": "view",
      "type": "function"
    },
    {
      "constant": true,
      "inputs": [],
      "name": "checkInfo",
      "outputs": [
        {
          "name": "balance",
          "type": "uint256"
        },
        {
          "name": "runTimes",
          "type": "uint256"
        },
        {
          "name": "employeeCount",
          "type": "uint256"
        }
      ],
      "payable": false,
      "stateMutability": "view",
      "type": "function"
    },
    {
      "constant": false,
      "inputs": [
        {
          "name": "ads",
          "type": "address"
        },
        {
          "name": "sly",
          "type": "uint256"
        }
      ],
      "name": "updateEmployeeMsg",
      "outputs": [],
      "payable": false,
      "stateMutability": "nonpayable",
      "type": "function"
    },
    {
      "constant": false,
      "inputs": [
        {
          "name": "initialAds",
          "type": "address"
        },
        {
          "name": "ads",
          "type": "address"
        },
        {
          "name": "index",
          "type": "uint256"
        }
      ],
      "name": "changePaymentAddress",
      "outputs": [],
      "payable": false,
      "stateMutability": "nonpayable",
      "type": "function"
    },
    {
      "constant": false,
      "inputs": [],
      "name": "addFund",
      "outputs": [
        {
          "name": "",
          "type": "uint256"
        }
      ],
      "payable": true,
      "stateMutability": "payable",
      "type": "function"
    },
    {
      "constant": true,
      "inputs": [],
      "name": "getPayTimes",
      "outputs": [
        {
          "name": "",
          "type": "uint256"
        }
      ],
      "payable": false,
      "stateMutability": "view",
      "type": "function"
    },
    {
      "constant": true,
      "inputs": [],
      "name": "hasEnoughPay",
      "outputs": [
        {
          "name": "",
          "type": "bool"
        }
      ],
      "payable": false,
      "stateMutability": "view",
      "type": "function"
    },
    {
      "constant": false,
      "inputs": [],
      "name": "getMyWage",
      "outputs": [],
      "payable": false,
      "stateMutability": "nonpayable",
      "type": "function"
    }
  ],
  "bytecode": "0x606060405260006001556000600255336000806101000a81548173ffffffffffffffffffffffffffffffffffffffff021916908373ffffffffffffffffffffffffffffffffffffffff160217905550611d138061005d6000396000f3006060604052600436106100d0576000357c0100000000000000000000000000000000000000000000000000000000900463ffffffff1680630f876c98146100d5578063266d02a11461011757806381d48cfa1461012c57806385a96258146101595780638da5cb5b1461019057806396b02696146101e55780639947bfd014610256578063a2f09dfa146102dd578063d0678947146102fb578063d108177a14610382578063daf0389f146103bb578063e7fd9a13146103e4578063f2fde38b14610426578063fb52d99b1461045f575b600080fd5b34156100e057600080fd5b610115600480803573ffffffffffffffffffffffffffffffffffffffff169060200190919080359060200190919050506104c0565b005b341561012257600080fd5b61012a6107f6565b005b341561013757600080fd5b61013f6109c5565b604051808215151515815260200191505060405180910390f35b341561016457600080fd5b61016c6109d8565b60405180848152602001838152602001828152602001935050505060405180910390f35b341561019b57600080fd5b6101a3610a17565b604051808273ffffffffffffffffffffffffffffffffffffffff1673ffffffffffffffffffffffffffffffffffffffff16815260200191505060405180910390f35b34156101f057600080fd5b6102066004808035906020019091905050610a3c565b604051808473ffffffffffffffffffffffffffffffffffffffff1673ffffffffffffffffffffffffffffffffffffffff168152602001838152602001828152602001935050505060405180910390f35b341561026157600080fd5b61028d600480803573ffffffffffffffffffffffffffffffffffffffff16906020019091905050610b31565b604051808473ffffffffffffffffffffffffffffffffffffffff1673ffffffffffffffffffffffffffffffffffffffff168152602001838152602001828152602001935050505060405180910390f35b6102e5610c79565b6040518082815260200191505060405180910390f35b341561030657600080fd5b610332600480803573ffffffffffffffffffffffffffffffffffffffff16906020019091905050610ce6565b604051808473ffffffffffffffffffffffffffffffffffffffff1673ffffffffffffffffffffffffffffffffffffffff168152602001838152602001828152602001935050505060405180910390f35b341561038d57600080fd5b6103b9600480803573ffffffffffffffffffffffffffffffffffffffff16906020019091905050610d30565b005b34156103c657600080fd5b6103ce61114a565b6040518082815260200191505060405180910390f35b34156103ef57600080fd5b610424600480803573ffffffffffffffffffffffffffffffffffffffff16906020019091908035906020019091905050611194565b005b341561043157600080fd5b61045d600480803573ffffffffffffffffffffffffffffffffffffffff1690602001909190505061151b565b005b341561046a57600080fd5b6104be600480803573ffffffffffffffffffffffffffffffffffffffff1690602001909190803573ffffffffffffffffffffffffffffffffffffffff16906020019091908035906020019091905050611670565b005b60008060009054906101000a900473ffffffffffffffffffffffffffffffffffffffff1673ffffffffffffffffffffffffffffffffffffffff163373ffffffffffffffffffffffffffffffffffffffff1614151561051d57600080fd5b826000600360008373ffffffffffffffffffffffffffffffffffffffff1673ffffffffffffffffffffffffffffffffffffffff168152602001908152602001600020905060008160000160009054906101000a900473ffffffffffffffffffffffffffffffffffffffff1673ffffffffffffffffffffffffffffffffffffffff16141515156105a857fe5b600360008673ffffffffffffffffffffffffffffffffffffffff1673ffffffffffffffffffffffffffffffffffffffff168152602001908152602001600020925061066883606060405190810160405290816000820160009054906101000a900473ffffffffffffffffffffffffffffffffffffffff1673ffffffffffffffffffffffffffffffffffffffff1673ffffffffffffffffffffffffffffffffffffffff16815260200160018201548152602001600282015481525050611a58565b6106818360010154600154611ae490919063ffffffff16565b6001819055506106a2670de0b6b3a764000085611afd90919063ffffffff16565b600360008773ffffffffffffffffffffffffffffffffffffffff1673ffffffffffffffffffffffffffffffffffffffff1681526020019081526020016000206001018190555042600360008773ffffffffffffffffffffffffffffffffffffffff1673ffffffffffffffffffffffffffffffffffffffff16815260200190815260200160002060020181905550610786600360008773ffffffffffffffffffffffffffffffffffffffff1673ffffffffffffffffffffffffffffffffffffffff16815260200190815260200160002060010154600154611b3890919063ffffffff16565b6001819055507f2ace295097f779f3bddd0f191a587cb1f99c72e351c7cd8404e444fba407c7f685604051808273ffffffffffffffffffffffffffffffffffffffff1673ffffffffffffffffffffffffffffffffffffffff16815260200191505060405180910390a15050505050565b600080336000600360008373ffffffffffffffffffffffffffffffffffffffff1673ffffffffffffffffffffffffffffffffffffffff168152602001908152602001600020905060008160000160009054906101000a900473ffffffffffffffffffffffffffffffffffffffff1673ffffffffffffffffffffffffffffffffffffffff161415151561088457fe5b600360003373ffffffffffffffffffffffffffffffffffffffff1673ffffffffffffffffffffffffffffffffffffffff1681526020019081526020016000209350600a84600201540192504283111580156108e357506108e26109c5565b5b15156108eb57fe5b8284600201819055508360000160009054906101000a900473ffffffffffffffffffffffffffffffffffffffff1673ffffffffffffffffffffffffffffffffffffffff166108fc85600101549081150290604051600060405180830381858888f19350505050151561095c57600080fd5b7f29b831e8b29527289b34da6b292cdbbf760a39f5611511f14e6d930b3d97c0a733604051808273ffffffffffffffffffffffffffffffffffffffff1673ffffffffffffffffffffffffffffffffffffffff16815260200191505060405180910390a150505050565b600060016109d161114a565b1015905090565b60008060003073ffffffffffffffffffffffffffffffffffffffff16319250600254905060006001541115610a1257610a0f61114a565b91505b909192565b6000809054906101000a900473ffffffffffffffffffffffffffffffffffffffff1681565b6000806000806000809054906101000a900473ffffffffffffffffffffffffffffffffffffffff1673ffffffffffffffffffffffffffffffffffffffff163373ffffffffffffffffffffffffffffffffffffffff16141515610a9d57600080fd5b600485815481101515610aac57fe5b906000526020600020900160009054906101000a900473ffffffffffffffffffffffffffffffffffffffff169350600360008573ffffffffffffffffffffffffffffffffffffffff1673ffffffffffffffffffffffffffffffffffffffff16815260200190815260200160002090508060010154925080600201549150509193909250565b6000806000806000809054906101000a900473ffffffffffffffffffffffffffffffffffffffff1673ffffffffffffffffffffffffffffffffffffffff163373ffffffffffffffffffffffffffffffffffffffff16141515610b9257600080fd5b846000600360008373ffffffffffffffffffffffffffffffffffffffff1673ffffffffffffffffffffffffffffffffffffffff168152602001908152602001600020905060008160000160009054906101000a900473ffffffffffffffffffffffffffffffffffffffff1673ffffffffffffffffffffffffffffffffffffffff1614151515610c1d57fe5b869550600360008773ffffffffffffffffffffffffffffffffffffffff1673ffffffffffffffffffffffffffffffffffffffff168152602001908152602001600020925082600101549450826002015493505050509193909250565b60007fbe1e4b1ad5d83f75925e2f00ab046fbab2ee90d0dbdf7f2049d037a48ada09f33073ffffffffffffffffffffffffffffffffffffffff16316040518082815260200191505060405180910390a13073ffffffffffffffffffffffffffffffffffffffff1631905090565b60036020528060005260406000206000915090508060000160009054906101000a900473ffffffffffffffffffffffffffffffffffffffff16908060010154908060020154905083565b6000806000806000809054906101000a900473ffffffffffffffffffffffffffffffffffffffff1673ffffffffffffffffffffffffffffffffffffffff163373ffffffffffffffffffffffffffffffffffffffff16141515610d9157600080fd5b846000600360008373ffffffffffffffffffffffffffffffffffffffff1673ffffffffffffffffffffffffffffffffffffffff168152602001908152602001600020905060008160000160009054906101000a900473ffffffffffffffffffffffffffffffffffffffff1673ffffffffffffffffffffffffffffffffffffffff1614151515610e1c57fe5b600360008873ffffffffffffffffffffffffffffffffffffffff1673ffffffffffffffffffffffffffffffffffffffff1681526020019081526020016000209550610edc86606060405190810160405290816000820160009054906101000a900473ffffffffffffffffffffffffffffffffffffffff1673ffffffffffffffffffffffffffffffffffffffff1673ffffffffffffffffffffffffffffffffffffffff16815260200160018201548152602001600282015481525050611a58565b610f33600360008973ffffffffffffffffffffffffffffffffffffffff1673ffffffffffffffffffffffffffffffffffffffff16815260200190815260200160002060010154600154611ae490919063ffffffff16565b600181905550600360008873ffffffffffffffffffffffffffffffffffffffff1673ffffffffffffffffffffffffffffffffffffffff168152602001908152602001600020600080820160006101000a81549073ffffffffffffffffffffffffffffffffffffffff0219169055600182016000905560028201600090555050610fbb87611b56565b945094506004805490509250600484815481101515610fd657fe5b906000526020600020900160006101000a81549073ffffffffffffffffffffffffffffffffffffffff021916905584801561101057508284105b156110c25760046001840381548110151561102757fe5b906000526020600020900160009054906101000a900473ffffffffffffffffffffffffffffffffffffffff1660048581548110151561106257fe5b906000526020600020900160006101000a81548173ffffffffffffffffffffffffffffffffffffffff021916908373ffffffffffffffffffffffffffffffffffffffff16021790555060048054809190600190036110c09190611c32565b505b6110d86001600254611ae490919063ffffffff16565b6002819055507f2ace295097f779f3bddd0f191a587cb1f99c72e351c7cd8404e444fba407c7f687604051808273ffffffffffffffffffffffffffffffffffffffff1673ffffffffffffffffffffffffffffffffffffffff16815260200191505060405180910390a150505050505050565b600080600060015414611188576111836001543073ffffffffffffffffffffffffffffffffffffffff1631611c1790919063ffffffff16565b61118b565b60005b90508091505090565b600061119e611c5e565b6000809054906101000a900473ffffffffffffffffffffffffffffffffffffffff1673ffffffffffffffffffffffffffffffffffffffff163373ffffffffffffffffffffffffffffffffffffffff161415156111f957600080fd5b600360008573ffffffffffffffffffffffffffffffffffffffff1673ffffffffffffffffffffffffffffffffffffffff168152602001908152602001600020915060008260000160009054906101000a900473ffffffffffffffffffffffffffffffffffffffff1673ffffffffffffffffffffffffffffffffffffffff1614156114ad576060604051908101604052808573ffffffffffffffffffffffffffffffffffffffff1681526020016112c0670de0b6b3a764000086611afd90919063ffffffff16565b815260200142815250905080600360008673ffffffffffffffffffffffffffffffffffffffff1673ffffffffffffffffffffffffffffffffffffffff16815260200190815260200160002060008201518160000160006101000a81548173ffffffffffffffffffffffffffffffffffffffff021916908373ffffffffffffffffffffffffffffffffffffffff16021790555060208201518160010155604082015181600201559050506113c0600360008673ffffffffffffffffffffffffffffffffffffffff1673ffffffffffffffffffffffffffffffffffffffff16815260200190815260200160002060010154600154611b3890919063ffffffff16565b6001819055506113dc6001600254611b3890919063ffffffff16565b600281905550600480548060010182816113f69190611c96565b9160005260206000209001600086909190916101000a81548173ffffffffffffffffffffffffffffffffffffffff021916908373ffffffffffffffffffffffffffffffffffffffff160217905550507f7988e11d8d3b3b5a6a401ac182388edcb5e6751c54bee5dbefa4315cc3b2016d84604051808273ffffffffffffffffffffffffffffffffffffffff1673ffffffffffffffffffffffffffffffffffffffff16815260200191505060405180910390a1611515565b7f9243cc640ff0c212e031aa0d3cc53cdc3c271d1afb874c224b9b5349bb0c56f484604051808273ffffffffffffffffffffffffffffffffffffffff1673ffffffffffffffffffffffffffffffffffffffff16815260200191505060405180910390a1600080fd5b50505050565b6000809054906101000a900473ffffffffffffffffffffffffffffffffffffffff1673ffffffffffffffffffffffffffffffffffffffff163373ffffffffffffffffffffffffffffffffffffffff1614151561157657600080fd5b600073ffffffffffffffffffffffffffffffffffffffff168173ffffffffffffffffffffffffffffffffffffffff16141515156115b257600080fd5b8073ffffffffffffffffffffffffffffffffffffffff166000809054906101000a900473ffffffffffffffffffffffffffffffffffffffff1673ffffffffffffffffffffffffffffffffffffffff167f8be0079c531659141344cd1fd0a4f28419497f9722a3daafe3b4186f6b6457e060405160405180910390a3806000806101000a81548173ffffffffffffffffffffffffffffffffffffffff021916908373ffffffffffffffffffffffffffffffffffffffff16021790555050565b600061167a611c5e565b6000809054906101000a900473ffffffffffffffffffffffffffffffffffffffff1673ffffffffffffffffffffffffffffffffffffffff163373ffffffffffffffffffffffffffffffffffffffff161415156116d557600080fd5b846000600360008373ffffffffffffffffffffffffffffffffffffffff1673ffffffffffffffffffffffffffffffffffffffff168152602001908152602001600020905060008160000160009054906101000a900473ffffffffffffffffffffffffffffffffffffffff1673ffffffffffffffffffffffffffffffffffffffff161415151561176057fe5b600360008873ffffffffffffffffffffffffffffffffffffffff1673ffffffffffffffffffffffffffffffffffffffff168152602001908152602001600020935061182084606060405190810160405290816000820160009054906101000a900473ffffffffffffffffffffffffffffffffffffffff1673ffffffffffffffffffffffffffffffffffffffff1673ffffffffffffffffffffffffffffffffffffffff16815260200160018201548152602001600282015481525050611a58565b8560048681548110151561183057fe5b906000526020600020900160006101000a81548173ffffffffffffffffffffffffffffffffffffffff021916908373ffffffffffffffffffffffffffffffffffffffff1602179055506060604051908101604052808773ffffffffffffffffffffffffffffffffffffffff1681526020018560010154815260200142815250925082600360008873ffffffffffffffffffffffffffffffffffffffff1673ffffffffffffffffffffffffffffffffffffffff16815260200190815260200160002060008201518160000160006101000a81548173ffffffffffffffffffffffffffffffffffffffff021916908373ffffffffffffffffffffffffffffffffffffffff1602179055506020820151816001015560408201518160020155905050600360008560000160009054906101000a900473ffffffffffffffffffffffffffffffffffffffff1673ffffffffffffffffffffffffffffffffffffffff1673ffffffffffffffffffffffffffffffffffffffff168152602001908152602001600020600080820160006101000a81549073ffffffffffffffffffffffffffffffffffffffff02191690556001820160009055600282016000905550507f2ace295097f779f3bddd0f191a587cb1f99c72e351c7cd8404e444fba407c7f686604051808273ffffffffffffffffffffffffffffffffffffffff1673ffffffffffffffffffffffffffffffffffffffff16815260200191505060405180910390a150505050505050565b6000611a9a600a611a8c611a79856040015142611ae490919063ffffffff16565b8560200151611afd90919063ffffffff16565b611c1790919063ffffffff16565b9050816000015173ffffffffffffffffffffffffffffffffffffffff166108fc829081150290604051600060405180830381858888f193505050501515611ae057600080fd5b5050565b6000828211151515611af257fe5b818303905092915050565b6000806000841415611b125760009150611b31565b8284029050828482811515611b2357fe5b04141515611b2d57fe5b8091505b5092915050565b6000808284019050838110151515611b4c57fe5b8091505092915050565b600080600080600080600480549050935060009250600090505b83811015611c05578673ffffffffffffffffffffffffffffffffffffffff16600482815481101515611b9e57fe5b906000526020600020900160009054906101000a900473ffffffffffffffffffffffffffffffffffffffff1673ffffffffffffffffffffffffffffffffffffffff16141515611bf4578280600101935050611bf8565b8091505b8080600101915050611b70565b83831415955081945050505050915091565b6000808284811515611c2557fe5b0490508091505092915050565b815481835581811511611c5957818360005260206000209182019101611c589190611cc2565b5b505050565b606060405190810160405280600073ffffffffffffffffffffffffffffffffffffffff16815260200160008152602001600081525090565b815481835581811511611cbd57818360005260206000209182019101611cbc9190611cc2565b5b505050565b611ce491905b80821115611ce0576000816000905550600101611cc8565b5090565b905600a165627a7a72305820521556a4b4bbb6efc21ba9b4caa4cbd9e088dd70e88986bdfc7db05d1ec823aa0029",
  "source": "/**\n * @author: 花夏\n * @date:   2018-03-16\n * @Email:  liubiao@itoxs.com\n * 第三节：  编写多员工薪资系统，并继续添加新功能,如何减少GAS消耗\n * 在查看是否足够支付员工薪水时，算上手续费\n * @Copyright: Copyright (c) 2018 by huarxia. All Rights Reserved.\n */\n\npragma solidity ^0.4.18;\nimport 'zeppelin-solidity/contracts/ownership/Ownable.sol';\nimport 'zeppelin-solidity/contracts/math/SafeMath.sol';\n// 声明合约方法\ncontract Payroll is Ownable {\n    // 发薪时间步长\n    // uint constant payStep = 30 days;\n    // 方便调试改成 10s\n    uint constant payStep = 10 seconds;\n    uint private totalSalary = 0;\n    uint totalEmployee = 0;\n    using SafeMath for uint;\n    // 定义个strut类型的employee数组\n    struct Employee {\n        // 因为地址是唯一的，所以将地址设为Id\n        address id;\n        uint salary;\n        uint lastPayDay;\n    }\n    // Employee [] employees;\n    // 使用map结构方便查询降低gas\n    mapping (address => Employee) public employees;\n    address[] employeesListArr;\n\n    /**\n     * 定义一个modifier 判断是否包含这个员工\n     */\n    modifier employeeExist(address ads) {\n        var employee = employees[ads];\n        assert(employee.id != 0x0);\n        _;\n    }\n\n    /**\n     * [NewEmployeeExist] 新增一个已存在的员工\n     */\n    event NewEmployeeExist(\n        address employee\n    );\n    /**\n     * [NewEmployeeIsNull] 新增一个不存在的员工\n     */\n    event NewEmployeeIsNull(\n        address employee\n    );\n    /**\n     * [NewFund] 增加余额\n     */\n    event NewFund(\n        uint balance\n    );\n    /**\n     * [UpdateInfo] 更新信息\n     */\n    event UpdateInfo(\n        address employee\n    );\n    /**\n     * [UpdateInfo] 更新信息\n     */\n    event GetMyWage(\n        address employee\n    );\n\n    /**\n     * [_paySurplusWages 内置支付剩余薪水函数，有木有和js类似？]\n     * @author 花夏 liubiao@itoxs.com\n     * private 内部函数请声明私有化\n     * @param  employee [需要支付的员工数据信息]\n     */\n    function _paySurplusWages(Employee employee) private {\n        // assert(employee.id != 0x0);\n        uint payment = employee.salary\n                    .mul(now.sub(employee.lastPayDay))\n                    .div(payStep);\n        employee.id.transfer(payment);\n    }\n\n    /**\n     * [_isRepeatEmployee] 判断是否存在\n     *\n     * @author 花夏 liubiao@itoxs.com\n     * @param      ads [传入判断地址]\n     * @return         [返回存在与否以及下标]\n     */\n    function _isRepeatEmployee(address ads) private view returns(bool repeat, uint index) {\n        uint len = employeesListArr.length;\n        uint num = 0;\n        uint _index;\n        for (uint i = 0; i < len; i++) {\n            if (employeesListArr[i] != ads) {\n                num++;\n            } else {\n                _index = i;\n            }\n        }\n        repeat = (num != len);\n        index =_index;\n        \n    }\n\n    /**\n     * [addEmployee 添加一个新员工地址]\n     * @author 花夏 liubiao@itoxs.com\n     * @param  employeeId [新员工地址]\n     * @param  salary    [应付的月薪]\n     */\n    function addEmployee(address employeeId, uint salary) public onlyOwner {\n        var employee = employees[employeeId];\n        // 如果不存在\n        if (employee.id == 0x0) {\n            // 添加员工\n            Employee memory employeeTemp = Employee(employeeId, salary.mul(1 ether), now);\n            employees[employeeId] = employeeTemp;\n            totalSalary = totalSalary.add(employees[employeeId].salary);\n            totalEmployee = totalEmployee.add(1);\n            employeesListArr.push(employeeId);\n            NewEmployeeIsNull(employeeId);\n        }else {\n            NewEmployeeExist(employeeId);\n            revert();\n        }\n    }\n\n    /**\n     * [removeEmployee 删除一个员工并支付其剩余薪水]\n     * @author 花夏 liubiao@itoxs.com\n     * @param  employeeId [需要删除员工的地址]\n     */\n    function removeEmployee(address employeeId) public onlyOwner employeeExist(employeeId) {\n        // 查找存在的需要移除的员工\n        var employee = employees[employeeId];\n        // 我已经在支付函数里做了判断拉~~\n        _paySurplusWages(employee);\n        totalSalary = totalSalary.sub(employees[employeeId].salary);\n        delete employees[employeeId];\n        var (repeat, index) = _isRepeatEmployee(employeeId);\n        uint len = employeesListArr.length;\n        delete employeesListArr[index];\n        if (repeat && index < len) {\n            employeesListArr[index] = employeesListArr[len - 1];\n            employeesListArr.length--;\n        }\n        totalEmployee = totalEmployee.sub(1);\n        UpdateInfo(employeeId);\n    }\n\n    /**\n     * [checkEmployee] 检查员工信息\n     *\n     * @author 花夏 liubiao@itoxs.com\n     * @param  index [下标]\n     * @return      [员工所有信息]\n     */\n    function checkEmployee(uint index) public view onlyOwner returns (address employeeId, uint salary, uint lastPayDay) {\n        employeeId = employeesListArr[index];\n        var employee = employees[employeeId];\n        salary = employee.salary;\n        lastPayDay = employee.lastPayDay;\n    }\n\n    /**\n     * [checkEmployee] 检查员工信息\n     *\n     * @author 花夏 liubiao@itoxs.com\n     * @param  ads [地址]\n     * @return      [员工所有信息]\n     */\n    function checkEmployeeOfAds(address ads) public view onlyOwner employeeExist(ads) returns (address employeeId, uint salary, uint lastPayDay) {\n        employeeId = ads;\n        var employee = employees[employeeId];\n        salary = employee.salary;\n        lastPayDay = employee.lastPayDay;\n    }\n\n    /**\n     * [checkInfo] 获取合约信息\n     *\n     * @author 花夏 liubiao@itoxs.com\n     * @return [返回合约的信息 包括总金额、支付次数、员工总数]\n     */\n    function checkInfo() public view returns (uint balance, uint runTimes, uint employeeCount) {\n        balance = this.balance;\n        employeeCount = totalEmployee;\n        if (totalSalary > 0) {\n            runTimes = getPayTimes();\n        }\n    }\n    /**\n     * [updateEmployeeMsg 更新员工地址或者月薪基数]\n     * @author 花夏 liubiao@itoxs.com\n     * @param  ads [更新地址]\n     * @param  sly [更新的月薪基数]\n     * ** 填写地址处一定要使用英文状态下的双引号 \"\" ***\n     * 例如 \"0xca35b7d915458ef540ade6068dfe2f44e8fa733c\"\n     */\n    function updateEmployeeMsg(address ads, uint sly) public onlyOwner employeeExist(ads) {\n        // 查找存在的员工\n        var employee = employees[ads];\n        // 我已经在支付函数里做了判断拉~~\n        _paySurplusWages(employee);\n        totalSalary = totalSalary.sub(employee.salary);\n        // employees[ads].id = ads;\n        employees[ads].salary = sly.mul(1 ether);\n        employees[ads].lastPayDay = now;\n        totalSalary = totalSalary.add(employees[ads].salary);\n        UpdateInfo(ads);\n    }\n\n    /**\n     * [changePaymentAddress]  更改员工薪水地址，这个函数要求只能员工自己能调用，老板不能调用\n     *\n     * @author 花夏 liubiao@itoxs.com\n     * @param  initialAds [旧地址]\n     * @param  ads [新地址]\n     * @return     [description]\n     */\n    function changePaymentAddress(address initialAds, address ads, uint index) public onlyOwner employeeExist(initialAds) {\n        var employee = employees[initialAds];\n        _paySurplusWages(employee);\n        employeesListArr[index] = ads;\n        // 赋值并删除\n        Employee memory employeeTemp = Employee(ads, employee.salary, now);\n        employees[ads] = employeeTemp;\n        delete employees[employee.id];\n        UpdateInfo(ads);\n    }\n    \n    /**\n     * [addFund  添加支付金到合约地址]\n     * @author   花夏 liubiao@itoxs.com\n     * @return   返回合约的余额\n     */\n    function addFund() public payable returns(uint) {\n        // this 指向合约对象\n        NewFund(this.balance);\n        return this.balance;\n    }\n\n    /**\n     * [getPayTimes 获取合约地址还能支付薪水的次数]\n     * @author 花夏 liubiao@itoxs.com\n     * @return [返回合约地址还能支付薪水的次数]\n     */\n    function getPayTimes() view public returns(uint) {\n        uint times = totalSalary == 0 ? 0 : this.balance.div(totalSalary);\n        return times;\n    }\n\n    /**\n     * [hasEnoughPay 查看是否支付足够]\n     * @author 花夏 liubiao@itoxs.com\n     * @return [返回是否足够支付]\n     */\n    function hasEnoughPay() view public returns(bool) {\n        return getPayTimes() >= 1;\n    }\n\n    /**\n     * [getMyWage 员工自己领取自己的工资]\n     * @author 花夏 liubiao@itoxs.com\n     */\n    function getMyWage() public employeeExist(msg.sender) {\n        var employee = employees[msg.sender];\n        uint curPayDay = employee.lastPayDay + payStep;\n        assert(curPayDay <= now && hasEnoughPay());\n        // 为啥这几个if判断个分开写？不使用 || ？我分别弹出消息提醒用户啊！\n        employee.lastPayDay = curPayDay;\n        // 这里千万不要交换顺序哦，我猜测可以更改本地时间干坏事情\n        employee.id.transfer(employee.salary);\n        GetMyWage(msg.sender);\n    }\n}\n",
  "sourcePath": "/Users/liubiao/code/Team-G/vue-payroll/contracts/Payroll.sol",
  "compiler": {
    "name": "solc",
    "version": "0.4.19+commit.c4cbbb05.Emscripten.clang"
  },
  "schemaVersion": "2.0.0",
  "updatedAt": "2018-04-04T07:01:32.088Z"
}