{
  "contractName": "Payroll",
  "abi": [
    {
      "constant": true,
      "inputs": [],
      "name": "owner",
      "outputs": [
        {
          "name": "",
          "type": "address"
        }
      ],
      "payable": false,
      "stateMutability": "view",
      "type": "function"
    },
    {
      "constant": true,
      "inputs": [
        {
          "name": "",
          "type": "address"
        }
      ],
      "name": "employees",
      "outputs": [
        {
          "name": "id",
          "type": "address"
        },
        {
          "name": "salary",
          "type": "uint256"
        },
        {
          "name": "lastPayDay",
          "type": "uint256"
        }
      ],
      "payable": false,
      "stateMutability": "view",
      "type": "function"
    },
    {
      "constant": false,
      "inputs": [
        {
          "name": "newOwner",
          "type": "address"
        }
      ],
      "name": "transferOwnership",
      "outputs": [],
      "payable": false,
      "stateMutability": "nonpayable",
      "type": "function"
    },
    {
      "anonymous": false,
      "inputs": [
        {
          "indexed": true,
          "name": "previousOwner",
          "type": "address"
        },
        {
          "indexed": true,
          "name": "newOwner",
          "type": "address"
        }
      ],
      "name": "OwnershipTransferred",
      "type": "event"
    },
    {
      "constant": false,
      "inputs": [
        {
          "name": "employeeId",
          "type": "address"
        },
        {
          "name": "salary",
          "type": "uint256"
        }
      ],
      "name": "addEmployee",
      "outputs": [],
      "payable": false,
      "stateMutability": "nonpayable",
      "type": "function"
    },
    {
      "constant": false,
      "inputs": [
        {
          "name": "employeeId",
          "type": "address"
        }
      ],
      "name": "removeEmployee",
      "outputs": [],
      "payable": false,
      "stateMutability": "nonpayable",
      "type": "function"
    },
    {
      "constant": true,
      "inputs": [
        {
          "name": "index",
          "type": "uint256"
        }
      ],
      "name": "checkEmployee",
      "outputs": [
        {
          "name": "employeeId",
          "type": "address"
        },
        {
          "name": "salary",
          "type": "uint256"
        },
        {
          "name": "lastPayDay",
          "type": "uint256"
        }
      ],
      "payable": false,
      "stateMutability": "view",
      "type": "function"
    },
    {
      "constant": true,
      "inputs": [],
      "name": "checkInfo",
      "outputs": [
        {
          "name": "balance",
          "type": "uint256"
        },
        {
          "name": "runTimes",
          "type": "uint256"
        },
        {
          "name": "employeeCount",
          "type": "uint256"
        }
      ],
      "payable": false,
      "stateMutability": "view",
      "type": "function"
    },
    {
      "constant": false,
      "inputs": [
        {
          "name": "ads",
          "type": "address"
        },
        {
          "name": "sly",
          "type": "uint256"
        }
      ],
      "name": "updateEmployeeMsg",
      "outputs": [],
      "payable": false,
      "stateMutability": "nonpayable",
      "type": "function"
    },
    {
      "constant": false,
      "inputs": [
        {
          "name": "initialAds",
          "type": "address"
        },
        {
          "name": "ads",
          "type": "address"
        },
        {
          "name": "index",
          "type": "uint256"
        }
      ],
      "name": "changePaymentAddress",
      "outputs": [],
      "payable": false,
      "stateMutability": "nonpayable",
      "type": "function"
    },
    {
      "constant": false,
      "inputs": [],
      "name": "addFund",
      "outputs": [
        {
          "name": "",
          "type": "uint256"
        }
      ],
      "payable": true,
      "stateMutability": "payable",
      "type": "function"
    },
    {
      "constant": true,
      "inputs": [],
      "name": "getPayTimes",
      "outputs": [
        {
          "name": "",
          "type": "uint256"
        }
      ],
      "payable": false,
      "stateMutability": "view",
      "type": "function"
    },
    {
      "constant": true,
      "inputs": [],
      "name": "hasEnoughPay",
      "outputs": [
        {
          "name": "",
          "type": "bool"
        }
      ],
      "payable": false,
      "stateMutability": "view",
      "type": "function"
    },
    {
      "constant": false,
      "inputs": [],
      "name": "getMyWage",
      "outputs": [],
      "payable": false,
      "stateMutability": "nonpayable",
      "type": "function"
    }
  ],
  "bytecode": "0x606060405260006001556000600255336000806101000a81548173ffffffffffffffffffffffffffffffffffffffff021916908373ffffffffffffffffffffffffffffffffffffffff1602179055506114c98061005d6000396000f3006060604052600436106100c5576000357c0100000000000000000000000000000000000000000000000000000000900463ffffffff1680630f876c98146100ca578063266d02a11461010c57806381d48cfa1461012157806385a962581461014e5780638da5cb5b1461018557806396b02696146101da578063a2f09dfa1461024b578063d067894714610269578063d108177a146102f0578063daf0389f14610329578063e7fd9a1314610352578063f2fde38b14610394578063fb52d99b146103cd575b600080fd5b34156100d557600080fd5b61010a600480803573ffffffffffffffffffffffffffffffffffffffff1690602001909190803590602001909190505061042e565b005b341561011757600080fd5b61011f61075c565b005b341561012c57600080fd5b6101346108c8565b604051808215151515815260200191505060405180910390f35b341561015957600080fd5b6101616108db565b60405180848152602001838152602001828152602001935050505060405180910390f35b341561019057600080fd5b61019861091a565b604051808273ffffffffffffffffffffffffffffffffffffffff1673ffffffffffffffffffffffffffffffffffffffff16815260200191505060405180910390f35b34156101e557600080fd5b6101fb600480803590602001909190505061093f565b604051808473ffffffffffffffffffffffffffffffffffffffff1673ffffffffffffffffffffffffffffffffffffffff168152602001838152602001828152602001935050505060405180910390f35b610253610a34565b6040518082815260200191505060405180910390f35b341561027457600080fd5b6102a0600480803573ffffffffffffffffffffffffffffffffffffffff16906020019091905050610a53565b604051808473ffffffffffffffffffffffffffffffffffffffff1673ffffffffffffffffffffffffffffffffffffffff168152602001838152602001828152602001935050505060405180910390f35b34156102fb57600080fd5b610327600480803573ffffffffffffffffffffffffffffffffffffffff16906020019091905050610a9d565b005b341561033457600080fd5b61033c610d29565b6040518082815260200191505060405180910390f35b341561035d57600080fd5b610392600480803573ffffffffffffffffffffffffffffffffffffffff16906020019091908035906020019091905050610d6c565b005b341561039f57600080fd5b6103cb600480803573ffffffffffffffffffffffffffffffffffffffff16906020019091905050610f39565b005b34156103d857600080fd5b61042c600480803573ffffffffffffffffffffffffffffffffffffffff1690602001909190803573ffffffffffffffffffffffffffffffffffffffff1690602001909190803590602001909190505061108e565b005b60008060009054906101000a900473ffffffffffffffffffffffffffffffffffffffff1673ffffffffffffffffffffffffffffffffffffffff163373ffffffffffffffffffffffffffffffffffffffff1614151561048b57600080fd5b826000600360008373ffffffffffffffffffffffffffffffffffffffff1673ffffffffffffffffffffffffffffffffffffffff168152602001908152602001600020905060008160000160009054906101000a900473ffffffffffffffffffffffffffffffffffffffff1673ffffffffffffffffffffffffffffffffffffffff161415151561051657fe5b600360008673ffffffffffffffffffffffffffffffffffffffff1673ffffffffffffffffffffffffffffffffffffffff16815260200190815260200160002092506105d683606060405190810160405290816000820160009054906101000a900473ffffffffffffffffffffffffffffffffffffffff1673ffffffffffffffffffffffffffffffffffffffff1673ffffffffffffffffffffffffffffffffffffffff168152602001600182015481526020016002820154815250506113af565b826001015460016000828254039250508190555084600360008773ffffffffffffffffffffffffffffffffffffffff1673ffffffffffffffffffffffffffffffffffffffff16815260200190815260200160002060000160006101000a81548173ffffffffffffffffffffffffffffffffffffffff021916908373ffffffffffffffffffffffffffffffffffffffff160217905550670de0b6b3a76400008402600360008773ffffffffffffffffffffffffffffffffffffffff1673ffffffffffffffffffffffffffffffffffffffff1681526020019081526020016000206001018190555042600360008773ffffffffffffffffffffffffffffffffffffffff1673ffffffffffffffffffffffffffffffffffffffff16815260200190815260200160002060020181905550600360008673ffffffffffffffffffffffffffffffffffffffff1673ffffffffffffffffffffffffffffffffffffffff168152602001908152602001600020600101546001600082825401925050819055505050505050565b600080336000600360008373ffffffffffffffffffffffffffffffffffffffff1673ffffffffffffffffffffffffffffffffffffffff168152602001908152602001600020905060008160000160009054906101000a900473ffffffffffffffffffffffffffffffffffffffff1673ffffffffffffffffffffffffffffffffffffffff16141515156107ea57fe5b600360003373ffffffffffffffffffffffffffffffffffffffff1673ffffffffffffffffffffffffffffffffffffffff1681526020019081526020016000209350600a846002015401925042831115801561084957506108486108c8565b5b151561085157fe5b8284600201819055508360000160009054906101000a900473ffffffffffffffffffffffffffffffffffffffff1673ffffffffffffffffffffffffffffffffffffffff166108fc85600101549081150290604051600060405180830381858888f1935050505015156108c257600080fd5b50505050565b600060016108d4610d29565b1015905090565b60008060003073ffffffffffffffffffffffffffffffffffffffff1631925060025490506000600154111561091557610912610d29565b91505b909192565b6000809054906101000a900473ffffffffffffffffffffffffffffffffffffffff1681565b6000806000806000809054906101000a900473ffffffffffffffffffffffffffffffffffffffff1673ffffffffffffffffffffffffffffffffffffffff163373ffffffffffffffffffffffffffffffffffffffff161415156109a057600080fd5b6004858154811015156109af57fe5b906000526020600020900160009054906101000a900473ffffffffffffffffffffffffffffffffffffffff169350600360008573ffffffffffffffffffffffffffffffffffffffff1673ffffffffffffffffffffffffffffffffffffffff16815260200190815260200160002090508060010154925080600201549150509193909250565b60003073ffffffffffffffffffffffffffffffffffffffff1631905090565b60036020528060005260406000206000915090508060000160009054906101000a900473ffffffffffffffffffffffffffffffffffffffff16908060010154908060020154905083565b60008060009054906101000a900473ffffffffffffffffffffffffffffffffffffffff1673ffffffffffffffffffffffffffffffffffffffff163373ffffffffffffffffffffffffffffffffffffffff16141515610afa57600080fd5b816000600360008373ffffffffffffffffffffffffffffffffffffffff1673ffffffffffffffffffffffffffffffffffffffff168152602001908152602001600020905060008160000160009054906101000a900473ffffffffffffffffffffffffffffffffffffffff1673ffffffffffffffffffffffffffffffffffffffff1614151515610b8557fe5b600360008573ffffffffffffffffffffffffffffffffffffffff1673ffffffffffffffffffffffffffffffffffffffff1681526020019081526020016000209250610c4583606060405190810160405290816000820160009054906101000a900473ffffffffffffffffffffffffffffffffffffffff1673ffffffffffffffffffffffffffffffffffffffff1673ffffffffffffffffffffffffffffffffffffffff168152602001600182015481526020016002820154815250506113af565b600360008573ffffffffffffffffffffffffffffffffffffffff1673ffffffffffffffffffffffffffffffffffffffff16815260200190815260200160002060010154600160008282540392505081905550600360008573ffffffffffffffffffffffffffffffffffffffff1673ffffffffffffffffffffffffffffffffffffffff168152602001908152602001600020600080820160006101000a81549073ffffffffffffffffffffffffffffffffffffffff02191690556001820160009055600282016000905550506002600081548092919060019003919050555050505050565b600080600060015414610d60576001543073ffffffffffffffffffffffffffffffffffffffff1631811515610d5a57fe5b04610d63565b60005b90508091505090565b610d74611414565b6000809054906101000a900473ffffffffffffffffffffffffffffffffffffffff1673ffffffffffffffffffffffffffffffffffffffff163373ffffffffffffffffffffffffffffffffffffffff16141515610dcf57600080fd5b6060604051908101604052808473ffffffffffffffffffffffffffffffffffffffff168152602001670de0b6b3a76400008402815260200142815250905080600360008573ffffffffffffffffffffffffffffffffffffffff1673ffffffffffffffffffffffffffffffffffffffff16815260200190815260200160002060008201518160000160006101000a81548173ffffffffffffffffffffffffffffffffffffffff021916908373ffffffffffffffffffffffffffffffffffffffff1602179055506020820151816001015560408201518160020155905050806020015160016000828254019250508190555060048054806001018281610ed3919061144c565b9160005260206000209001600085909190916101000a81548173ffffffffffffffffffffffffffffffffffffffff021916908373ffffffffffffffffffffffffffffffffffffffff16021790555050600260008154809291906001019190505550505050565b6000809054906101000a900473ffffffffffffffffffffffffffffffffffffffff1673ffffffffffffffffffffffffffffffffffffffff163373ffffffffffffffffffffffffffffffffffffffff16141515610f9457600080fd5b600073ffffffffffffffffffffffffffffffffffffffff168173ffffffffffffffffffffffffffffffffffffffff1614151515610fd057600080fd5b8073ffffffffffffffffffffffffffffffffffffffff166000809054906101000a900473ffffffffffffffffffffffffffffffffffffffff1673ffffffffffffffffffffffffffffffffffffffff167f8be0079c531659141344cd1fd0a4f28419497f9722a3daafe3b4186f6b6457e060405160405180910390a3806000806101000a81548173ffffffffffffffffffffffffffffffffffffffff021916908373ffffffffffffffffffffffffffffffffffffffff16021790555050565b6000806000809054906101000a900473ffffffffffffffffffffffffffffffffffffffff1673ffffffffffffffffffffffffffffffffffffffff163373ffffffffffffffffffffffffffffffffffffffff161415156110ec57600080fd5b846000600360008373ffffffffffffffffffffffffffffffffffffffff1673ffffffffffffffffffffffffffffffffffffffff168152602001908152602001600020905060008160000160009054906101000a900473ffffffffffffffffffffffffffffffffffffffff1673ffffffffffffffffffffffffffffffffffffffff161415151561117757fe5b600360008873ffffffffffffffffffffffffffffffffffffffff1673ffffffffffffffffffffffffffffffffffffffff168152602001908152602001600020935061123784606060405190810160405290816000820160009054906101000a900473ffffffffffffffffffffffffffffffffffffffff1673ffffffffffffffffffffffffffffffffffffffff1673ffffffffffffffffffffffffffffffffffffffff168152602001600182015481526020016002820154815250506113af565b8360010154925085600360008973ffffffffffffffffffffffffffffffffffffffff1673ffffffffffffffffffffffffffffffffffffffff16815260200190815260200160002060000160006101000a81548173ffffffffffffffffffffffffffffffffffffffff021916908373ffffffffffffffffffffffffffffffffffffffff16021790555042600360008873ffffffffffffffffffffffffffffffffffffffff1673ffffffffffffffffffffffffffffffffffffffff1681526020019081526020016000206002018190555082600360008873ffffffffffffffffffffffffffffffffffffffff1673ffffffffffffffffffffffffffffffffffffffff168152602001908152602001600020600101819055508560048681548110151561135d57fe5b906000526020600020900160006101000a81548173ffffffffffffffffffffffffffffffffffffffff021916908373ffffffffffffffffffffffffffffffffffffffff16021790555050505050505050565b6000600a826040015142038360200151028115156113c957fe5b049050816000015173ffffffffffffffffffffffffffffffffffffffff166108fc829081150290604051600060405180830381858888f19350505050151561141057600080fd5b5050565b606060405190810160405280600073ffffffffffffffffffffffffffffffffffffffff16815260200160008152602001600081525090565b815481835581811511611473578183600052602060002091820191016114729190611478565b5b505050565b61149a91905b8082111561149657600081600090555060010161147e565b5090565b905600a165627a7a7230582081be9e45e0c097412c003bfddc483edc6baba6dce8bf5da0934ca1c831c95dbd0029",
  "source": "/**\n * @author: 花夏\n * @date:   2018-03-16\n * @Email:  liubiao@itoxs.com\n * 第三节：  编写多员工薪资系统，并继续添加新功能,如何减少GAS消耗\n * 在查看是否足够支付员工薪水时，算上手续费\n * @Copyright: Copyright (c) 2018 by huarxia. All Rights Reserved.\n */\n\npragma solidity ^0.4.18;\nimport 'zeppelin-solidity/contracts/ownership/Ownable.sol';\n// 声明合约方法\ncontract Payroll is Ownable {\n    // 发薪时间步长\n    // uint constant payStep = 30 days;\n    // 方便调试改成 10s\n    uint constant payStep = 10 seconds;\n    uint private totalSalary = 0;\n    uint totalEmployee = 0;\n    // 定义个strut类型的employee数组\n    struct Employee {\n        // 因为地址是唯一的，所以将地址设为Id\n        address id;\n        uint salary;\n        uint lastPayDay;\n    }\n    // Employee [] employees;\n    // 使用map结构方便查询降低gas\n    mapping (address => Employee) public employees;\n    address[] employeesListArr;\n    /**\n     * 定义一个modifier 判断是否包含这个员工\n     */\n    modifier employeeExist(address ads) {\n        var employee = employees[ads];\n        assert(employee.id != 0x0);\n        _;\n    }\n\n    /**\n     *  根据传入的 msg.sender判断是否具有操作权限\n     */\n    modifier isEmpolyee(address employeeId) {\n        var employee = employees[employeeId];\n        assert(employee.id == employeeId);\n        _;\n    }\n    /**\n     * [_paySurplusWages 内置支付剩余薪水函数，有木有和js类似？]\n     * @author 花夏 liubiao@itoxs.com\n     * private 内部函数请声明私有化\n     * @param  employee [需要支付的员工数据信息]\n     */\n    function _paySurplusWages(Employee employee) private {\n        // assert(employee.id != 0x0);\n        uint paySurplusWages = employee.salary * (now - employee.lastPayDay) / payStep;\n        employee.id.transfer(paySurplusWages);\n    }\n\n    /**\n     * [addEmployee 添加一个新员工地址]\n     * @author 花夏 liubiao@itoxs.com\n     * @param  employeeId [新员工地址]\n     * @param  salary    [应付的月薪]\n     */\n    function addEmployee(address employeeId, uint salary) public onlyOwner {\n        // 添加员工\n        Employee memory employee = Employee(employeeId, salary * 1 ether, now);\n        employees[employeeId] = employee;\n        totalSalary += employee.salary;\n        employeesListArr.push(employeeId);\n        totalEmployee++;\n    }\n\n    /**\n     * [removeEmployee 删除一个员工并支付其剩余薪水]\n     * @author 花夏 liubiao@itoxs.com\n     * @param  employeeId [需要删除员工的地址]\n     */\n    function removeEmployee(address employeeId) public onlyOwner employeeExist(employeeId) {\n        // 查找存在的需要移除的员工\n        var employee = employees[employeeId];\n        // 我已经在支付函数里做了判断拉~~\n        _paySurplusWages(employee);\n        totalSalary -= employees[employeeId].salary;\n        delete employees[employeeId];\n        totalEmployee--;\n    }\n\n    /**\n     * [checkEmployee] 检查员工信息\n     *\n     * @author 花夏 liubiao@itoxs.com\n     * @param  index [下标]\n     * @return      [员工所有信息]\n     */\n    function checkEmployee(uint index) public view onlyOwner returns (address employeeId, uint salary, uint lastPayDay) {\n        employeeId = employeesListArr[index];\n        var employee = employees[employeeId];\n        salary = employee.salary;\n        lastPayDay = employee.lastPayDay;\n    }\n\n    /**\n     * [checkInfo] 获取合约信息\n     *\n     * @author 花夏 liubiao@itoxs.com\n     * @return [返回合约的信息 包括总金额、支付次数、员工总数]\n     */\n    function checkInfo() public view returns (uint balance, uint runTimes, uint employeeCount) {\n        balance = this.balance;\n        employeeCount = totalEmployee;\n\n        if (totalSalary > 0) {\n            runTimes = getPayTimes();\n        }\n    }\n    /**\n     * [updateEmployeeMsg 更新员工地址或者月薪基数]\n     * @author 花夏 liubiao@itoxs.com\n     * @param  ads [更新地址]\n     * @param  sly [更新的月薪基数]\n     * ** 填写地址处一定要使用英文状态下的双引号 \"\" ***\n     * 例如 \"0xca35b7d915458ef540ade6068dfe2f44e8fa733c\"\n     */\n    function updateEmployeeMsg(address ads, uint sly) public onlyOwner employeeExist(ads) {\n        // 查找存在的需要移除的员工\n        var employee = employees[ads];\n        // 我已经在支付函数里做了判断拉~~\n        _paySurplusWages(employee);\n        totalSalary -= employee.salary;\n        employees[ads].id = ads;\n        employees[ads].salary = sly * 1 ether;\n        employees[ads].lastPayDay = now;\n        totalSalary += employees[ads].salary;\n    }\n\n    /**\n     * [changePaymentAddress]  更改员工薪水地址，这个函数要求只能员工自己能调用，老板不能调用\n     *\n     * @author 花夏 liubiao@itoxs.com\n     * @param  initialAds [旧地址]\n     * @param  ads [新地址]\n     * @return     [description]\n     */\n    function changePaymentAddress(address initialAds, address ads, uint index) public onlyOwner employeeExist(initialAds) {\n        // 查找存在的需要移除的员工\n        var employee = employees[initialAds];\n        _paySurplusWages(employee);\n        uint salary = employee.salary;\n        employees[initialAds].id = ads;\n        employees[ads].lastPayDay = now;\n        employees[ads].salary = salary;\n        employeesListArr[index] = ads;\n    }\n    \n    /**\n     * [addFund  添加支付金到合约地址]\n     * @author   花夏 liubiao@itoxs.com\n     * @return   返回合约的余额\n     */\n    function addFund() public payable returns(uint) {\n        // this 指向合约对象\n        return this.balance;\n    }\n\n    /**\n     * [getPayTimes 获取合约地址还能支付薪水的次数]\n     * @author 花夏 liubiao@itoxs.com\n     * @return [返回合约地址还能支付薪水的次数]\n     */\n    function getPayTimes() view public returns(uint) {\n        uint times = totalSalary == 0 ? 0 : this.balance / totalSalary;\n        return times;\n    }\n\n    /**\n     * [hasEnoughPay 查看是否支付足够]\n     * @author 花夏 liubiao@itoxs.com\n     * @return [返回是否足够支付]\n     */\n    function hasEnoughPay() view public returns(bool) {\n        return getPayTimes() >= 1;\n    }\n\n    /**\n     * [getMyWage 员工自己领取自己的工资]\n     * @author 花夏 liubiao@itoxs.com\n     */\n    function getMyWage() public employeeExist(msg.sender) {\n        var employee = employees[msg.sender];\n        uint curPayDay = employee.lastPayDay + payStep;\n        assert(curPayDay <= now && hasEnoughPay());\n        // 为啥这几个if判断个分开写？不使用 || ？我分别弹出消息提醒用户啊！\n        employee.lastPayDay = curPayDay;\n        // 这里千万不要交换顺序哦，我猜测可以更改本地时间干坏事情\n        employee.id.transfer(employee.salary);\n    }\n}\n",
  "sourcePath": "/Users/liubiao/code/Team-G/vue-payroll/contracts/Payroll.sol",
  "compiler": {
    "name": "solc",
    "version": "0.4.19+commit.c4cbbb05.Emscripten.clang"
  },
  "schemaVersion": "2.0.0",
  "updatedAt": "2018-03-28T09:26:05.785Z"
}